{
  "contractName": "TLDR",
  "abi": [
    {
      "constant": true,
      "inputs": [],
      "name": "name",
      "outputs": [
        {
          "name": "",
          "type": "string"
        }
      ],
      "payable": false,
      "stateMutability": "view",
      "type": "function"
    },
    {
      "constant": false,
      "inputs": [
        {
          "name": "spender",
          "type": "address"
        },
        {
          "name": "amount",
          "type": "uint256"
        }
      ],
      "name": "approve",
      "outputs": [
        {
          "name": "",
          "type": "bool"
        }
      ],
      "payable": false,
      "stateMutability": "nonpayable",
      "type": "function"
    },
    {
      "constant": true,
      "inputs": [
        {
          "name": "",
          "type": "address"
        }
      ],
      "name": "lastActionTimestamp",
      "outputs": [
        {
          "name": "",
          "type": "uint256"
        }
      ],
      "payable": false,
      "stateMutability": "view",
      "type": "function"
    },
    {
      "constant": true,
      "inputs": [],
      "name": "totalSupply",
      "outputs": [
        {
          "name": "",
          "type": "uint256"
        }
      ],
      "payable": false,
      "stateMutability": "view",
      "type": "function"
    },
    {
      "constant": false,
      "inputs": [
        {
          "name": "sender",
          "type": "address"
        },
        {
          "name": "recipient",
          "type": "address"
        },
        {
          "name": "amount",
          "type": "uint256"
        }
      ],
      "name": "transferFrom",
      "outputs": [
        {
          "name": "",
          "type": "bool"
        }
      ],
      "payable": false,
      "stateMutability": "nonpayable",
      "type": "function"
    },
    {
      "constant": true,
      "inputs": [],
      "name": "decimals",
      "outputs": [
        {
          "name": "",
          "type": "uint8"
        }
      ],
      "payable": false,
      "stateMutability": "view",
      "type": "function"
    },
    {
      "constant": true,
      "inputs": [
        {
          "name": "",
          "type": "address"
        }
      ],
      "name": "lastSuperActionTimestamp",
      "outputs": [
        {
          "name": "",
          "type": "uint256"
        }
      ],
      "payable": false,
      "stateMutability": "view",
      "type": "function"
    },
    {
      "constant": false,
      "inputs": [
        {
          "name": "spender",
          "type": "address"
        },
        {
          "name": "addedValue",
          "type": "uint256"
        }
      ],
      "name": "increaseAllowance",
      "outputs": [
        {
          "name": "",
          "type": "bool"
        }
      ],
      "payable": false,
      "stateMutability": "nonpayable",
      "type": "function"
    },
    {
      "constant": true,
      "inputs": [],
      "name": "RDC",
      "outputs": [
        {
          "name": "",
          "type": "uint256"
        }
      ],
      "payable": false,
      "stateMutability": "view",
      "type": "function"
    },
    {
      "constant": true,
      "inputs": [],
      "name": "lexDAO",
      "outputs": [
        {
          "name": "",
          "type": "address"
        }
      ],
      "payable": false,
      "stateMutability": "view",
      "type": "function"
    },
    {
      "constant": true,
      "inputs": [],
      "name": "tldrAddress",
      "outputs": [
        {
          "name": "",
          "type": "address"
        }
      ],
      "payable": false,
      "stateMutability": "view",
      "type": "function"
    },
    {
      "constant": false,
      "inputs": [],
      "name": "renounceScribe",
      "outputs": [],
      "payable": false,
      "stateMutability": "nonpayable",
      "type": "function"
    },
    {
      "constant": true,
      "inputs": [
        {
          "name": "account",
          "type": "address"
        }
      ],
      "name": "balanceOf",
      "outputs": [
        {
          "name": "",
          "type": "uint256"
        }
      ],
      "payable": false,
      "stateMutability": "view",
      "type": "function"
    },
    {
      "constant": true,
      "inputs": [],
      "name": "symbol",
      "outputs": [
        {
          "name": "",
          "type": "string"
        }
      ],
      "payable": false,
      "stateMutability": "view",
      "type": "function"
    },
    {
      "constant": false,
      "inputs": [
        {
          "name": "spender",
          "type": "address"
        },
        {
          "name": "subtractedValue",
          "type": "uint256"
        }
      ],
      "name": "decreaseAllowance",
      "outputs": [
        {
          "name": "",
          "type": "bool"
        }
      ],
      "payable": false,
      "stateMutability": "nonpayable",
      "type": "function"
    },
    {
      "constant": true,
      "inputs": [
        {
          "name": "",
          "type": "uint256"
        }
      ],
      "name": "lexScript",
      "outputs": [
        {
          "name": "lexScribe",
          "type": "address"
        },
        {
          "name": "lexAddress",
          "type": "address"
        },
        {
          "name": "templateTerms",
          "type": "string"
        },
        {
          "name": "lexID",
          "type": "uint256"
        },
        {
          "name": "lexVersion",
          "type": "uint256"
        },
        {
          "name": "lexRate",
          "type": "uint256"
        }
      ],
      "payable": false,
      "stateMutability": "view",
      "type": "function"
    },
    {
      "constant": false,
      "inputs": [
        {
          "name": "recipient",
          "type": "address"
        },
        {
          "name": "amount",
          "type": "uint256"
        }
      ],
      "name": "transfer",
      "outputs": [
        {
          "name": "",
          "type": "bool"
        }
      ],
      "payable": false,
      "stateMutability": "nonpayable",
      "type": "function"
    },
    {
      "constant": true,
      "inputs": [
        {
          "name": "",
          "type": "address"
        }
      ],
      "name": "reputation",
      "outputs": [
        {
          "name": "",
          "type": "uint256"
        }
      ],
      "payable": false,
      "stateMutability": "view",
      "type": "function"
    },
    {
      "constant": true,
      "inputs": [
        {
          "name": "",
          "type": "uint256"
        }
      ],
      "name": "rddr",
      "outputs": [
        {
          "name": "client",
          "type": "address"
        },
        {
          "name": "provider",
          "type": "address"
        },
        {
          "name": "ddrToken",
          "type": "address"
        },
        {
          "name": "deliverable",
          "type": "string"
        },
        {
          "name": "lexID",
          "type": "uint256"
        },
        {
          "name": "ddrNumber",
          "type": "uint256"
        },
        {
          "name": "timeStamp",
          "type": "uint256"
        },
        {
          "name": "retainerTermination",
          "type": "uint256"
        },
        {
          "name": "deliverableRate",
          "type": "uint256"
        },
        {
          "name": "paid",
          "type": "uint256"
        },
        {
          "name": "payCap",
          "type": "uint256"
        },
        {
          "name": "confirmed",
          "type": "bool"
        },
        {
          "name": "disputed",
          "type": "bool"
        }
      ],
      "payable": false,
      "stateMutability": "view",
      "type": "function"
    },
    {
      "constant": true,
      "inputs": [
        {
          "name": "account",
          "type": "address"
        }
      ],
      "name": "isScribe",
      "outputs": [
        {
          "name": "",
          "type": "bool"
        }
      ],
      "payable": false,
      "stateMutability": "view",
      "type": "function"
    },
    {
      "constant": true,
      "inputs": [
        {
          "name": "",
          "type": "uint256"
        }
      ],
      "name": "rdc",
      "outputs": [
        {
          "name": "signatory",
          "type": "address"
        },
        {
          "name": "templateTerms",
          "type": "string"
        },
        {
          "name": "signatureDetails",
          "type": "string"
        },
        {
          "name": "lexID",
          "type": "uint256"
        },
        {
          "name": "dcNumber",
          "type": "uint256"
        },
        {
          "name": "timeStamp",
          "type": "uint256"
        },
        {
          "name": "revoked",
          "type": "bool"
        }
      ],
      "payable": false,
      "stateMutability": "view",
      "type": "function"
    },
    {
      "constant": true,
      "inputs": [
        {
          "name": "owner",
          "type": "address"
        },
        {
          "name": "spender",
          "type": "address"
        }
      ],
      "name": "allowance",
      "outputs": [
        {
          "name": "",
          "type": "uint256"
        }
      ],
      "payable": false,
      "stateMutability": "view",
      "type": "function"
    },
    {
      "constant": true,
      "inputs": [],
      "name": "RDDR",
      "outputs": [
        {
          "name": "",
          "type": "uint256"
        }
      ],
      "payable": false,
      "stateMutability": "view",
      "type": "function"
    },
    {
      "constant": true,
      "inputs": [],
      "name": "LSW",
      "outputs": [
        {
          "name": "",
          "type": "uint256"
        }
      ],
      "payable": false,
      "stateMutability": "view",
      "type": "function"
    },
    {
      "inputs": [
        {
          "name": "tldrTerms",
          "type": "string"
        },
        {
          "name": "tldrLexRate",
          "type": "uint256"
        },
        {
          "name": "tldrLexAddress",
          "type": "address"
        },
        {
          "name": "tldrLexDAO",
          "type": "address"
        }
      ],
      "payable": false,
      "stateMutability": "nonpayable",
      "type": "constructor"
    },
    {
      "anonymous": false,
      "inputs": [
        {
          "indexed": true,
          "name": "lexID",
          "type": "uint256"
        },
        {
          "indexed": true,
          "name": "lexVersion",
          "type": "uint256"
        },
        {
          "indexed": true,
          "name": "lexScribe",
          "type": "address"
        }
      ],
      "name": "Enscribed",
      "type": "event"
    },
    {
      "anonymous": false,
      "inputs": [
        {
          "indexed": true,
          "name": "lexID",
          "type": "uint256"
        },
        {
          "indexed": true,
          "name": "dcNumber",
          "type": "uint256"
        },
        {
          "indexed": true,
          "name": "signatory",
          "type": "address"
        }
      ],
      "name": "Signed",
      "type": "event"
    },
    {
      "anonymous": false,
      "inputs": [
        {
          "indexed": true,
          "name": "ddrNumber",
          "type": "uint256"
        },
        {
          "indexed": true,
          "name": "lexID",
          "type": "uint256"
        },
        {
          "indexed": true,
          "name": "client",
          "type": "address"
        }
      ],
      "name": "Registered",
      "type": "event"
    },
    {
      "anonymous": false,
      "inputs": [
        {
          "indexed": true,
          "name": "ddrNumber",
          "type": "uint256"
        },
        {
          "indexed": true,
          "name": "lexID",
          "type": "uint256"
        },
        {
          "indexed": true,
          "name": "provider",
          "type": "address"
        }
      ],
      "name": "Confirmed",
      "type": "event"
    },
    {
      "anonymous": false,
      "inputs": [
        {
          "indexed": true,
          "name": "ddrNumber",
          "type": "uint256"
        },
        {
          "indexed": true,
          "name": "lexID",
          "type": "uint256"
        }
      ],
      "name": "Paid",
      "type": "event"
    },
    {
      "anonymous": false,
      "inputs": [
        {
          "indexed": true,
          "name": "ddrNumber",
          "type": "uint256"
        }
      ],
      "name": "Disputed",
      "type": "event"
    },
    {
      "anonymous": false,
      "inputs": [
        {
          "indexed": true,
          "name": "ddrNumber",
          "type": "uint256"
        }
      ],
      "name": "Resolved",
      "type": "event"
    },
    {
      "anonymous": false,
      "inputs": [
        {
          "indexed": true,
          "name": "from",
          "type": "address"
        },
        {
          "indexed": true,
          "name": "to",
          "type": "address"
        },
        {
          "indexed": false,
          "name": "value",
          "type": "uint256"
        }
      ],
      "name": "Transfer",
      "type": "event"
    },
    {
      "anonymous": false,
      "inputs": [
        {
          "indexed": true,
          "name": "owner",
          "type": "address"
        },
        {
          "indexed": true,
          "name": "spender",
          "type": "address"
        },
        {
          "indexed": false,
          "name": "value",
          "type": "uint256"
        }
      ],
      "name": "Approval",
      "type": "event"
    },
    {
      "anonymous": false,
      "inputs": [
        {
          "indexed": true,
          "name": "account",
          "type": "address"
        }
      ],
      "name": "ScribeAdded",
      "type": "event"
    },
    {
      "anonymous": false,
      "inputs": [
        {
          "indexed": true,
          "name": "account",
          "type": "address"
        }
      ],
      "name": "ScribeRemoved",
      "type": "event"
    },
    {
      "constant": false,
      "inputs": [
        {
          "name": "account",
          "type": "address"
        }
      ],
      "name": "addScribe",
      "outputs": [],
      "payable": false,
      "stateMutability": "nonpayable",
      "type": "function"
    },
    {
      "constant": false,
      "inputs": [
        {
          "name": "account",
          "type": "address"
        }
      ],
      "name": "removeScribe",
      "outputs": [],
      "payable": false,
      "stateMutability": "nonpayable",
      "type": "function"
    },
    {
      "constant": false,
      "inputs": [
        {
          "name": "newLexDAO",
          "type": "address"
        }
      ],
      "name": "updateLexDAO",
      "outputs": [],
      "payable": false,
      "stateMutability": "nonpayable",
      "type": "function"
    },
    {
      "constant": false,
      "inputs": [],
      "name": "stakeETHreputation",
      "outputs": [],
      "payable": true,
      "stateMutability": "payable",
      "type": "function"
    },
    {
      "constant": false,
      "inputs": [],
      "name": "stakeLEXreputation",
      "outputs": [],
      "payable": false,
      "stateMutability": "nonpayable",
      "type": "function"
    },
    {
      "constant": true,
      "inputs": [
        {
          "name": "x",
          "type": "address"
        }
      ],
      "name": "isReputable",
      "outputs": [
        {
          "name": "",
          "type": "bool"
        }
      ],
      "payable": false,
      "stateMutability": "view",
      "type": "function"
    },
    {
      "constant": false,
      "inputs": [
        {
          "name": "reducedLexScribe",
          "type": "address"
        }
      ],
      "name": "reduceScribeRep",
      "outputs": [],
      "payable": false,
      "stateMutability": "nonpayable",
      "type": "function"
    },
    {
      "constant": false,
      "inputs": [
        {
          "name": "repairedLexScribe",
          "type": "address"
        }
      ],
      "name": "repairScribeRep",
      "outputs": [],
      "payable": false,
      "stateMutability": "nonpayable",
      "type": "function"
    },
    {
      "constant": false,
      "inputs": [
        {
          "name": "templateTerms",
          "type": "string"
        },
        {
          "name": "lexRate",
          "type": "uint256"
        },
        {
          "name": "lexAddress",
          "type": "address"
        }
      ],
      "name": "writeLexScript",
      "outputs": [],
      "payable": false,
      "stateMutability": "nonpayable",
      "type": "function"
    },
    {
      "constant": false,
      "inputs": [
        {
          "name": "lexID",
          "type": "uint256"
        },
        {
          "name": "templateTerms",
          "type": "string"
        },
        {
          "name": "lexAddress",
          "type": "address"
        }
      ],
      "name": "editLexScript",
      "outputs": [],
      "payable": false,
      "stateMutability": "nonpayable",
      "type": "function"
    },
    {
      "constant": false,
      "inputs": [
        {
          "name": "lexID",
          "type": "uint256"
        },
        {
          "name": "signatureDetails",
          "type": "string"
        }
      ],
      "name": "signDC",
      "outputs": [],
      "payable": false,
      "stateMutability": "nonpayable",
      "type": "function"
    },
    {
      "constant": false,
      "inputs": [
        {
          "name": "dcNumber",
          "type": "uint256"
        }
      ],
      "name": "revokeDC",
      "outputs": [],
      "payable": false,
      "stateMutability": "nonpayable",
      "type": "function"
    },
    {
      "constant": false,
      "inputs": [
        {
          "name": "client",
          "type": "address"
        },
        {
          "name": "provider",
          "type": "address"
        },
        {
          "name": "ddrToken",
          "type": "address"
        },
        {
          "name": "deliverable",
          "type": "string"
        },
        {
          "name": "retainerDuration",
          "type": "uint256"
        },
        {
          "name": "deliverableRate",
          "type": "uint256"
        },
        {
          "name": "payCap",
          "type": "uint256"
        },
        {
          "name": "lexID",
          "type": "uint256"
        }
      ],
      "name": "registerDDR",
      "outputs": [],
      "payable": false,
      "stateMutability": "nonpayable",
      "type": "function"
    },
    {
      "constant": false,
      "inputs": [
        {
          "name": "ddrNumber",
          "type": "uint256"
        }
      ],
      "name": "confirmDDR",
      "outputs": [],
      "payable": false,
      "stateMutability": "nonpayable",
      "type": "function"
    },
    {
      "constant": false,
      "inputs": [
        {
          "name": "ddrNumber",
          "type": "uint256"
        },
        {
          "name": "clientDelegate",
          "type": "address"
        }
      ],
      "name": "delegateDDRclient",
      "outputs": [],
      "payable": false,
      "stateMutability": "nonpayable",
      "type": "function"
    },
    {
      "constant": false,
      "inputs": [
        {
          "name": "ddrNumber",
          "type": "uint256"
        }
      ],
      "name": "disputeDDR",
      "outputs": [],
      "payable": false,
      "stateMutability": "nonpayable",
      "type": "function"
    },
    {
      "constant": false,
      "inputs": [
        {
          "name": "ddrNumber",
          "type": "uint256"
        },
        {
          "name": "clientAward",
          "type": "uint256"
        },
        {
          "name": "providerAward",
          "type": "uint256"
        }
      ],
      "name": "resolveDDR",
      "outputs": [],
      "payable": false,
      "stateMutability": "nonpayable",
      "type": "function"
    },
    {
      "constant": false,
      "inputs": [
        {
          "name": "ddrNumber",
          "type": "uint256"
        }
      ],
      "name": "payDDR",
      "outputs": [],
      "payable": false,
      "stateMutability": "nonpayable",
      "type": "function"
    },
    {
      "constant": false,
      "inputs": [
        {
          "name": "ddrNumber",
          "type": "uint256"
        }
      ],
      "name": "withdrawRemainder",
      "outputs": [],
      "payable": false,
      "stateMutability": "nonpayable",
      "type": "function"
    }
  ],
  "bytecode": "0x608060405230600560006101000a81548173ffffffffffffffffffffffffffffffffffffffff021916908373ffffffffffffffffffffffffffffffffffffffff160217905550600560009054906101000a900473ffffffffffffffffffffffffffffffffffffffff16600660006101000a81548173ffffffffffffffffffffffffffffffffffffffff021916908373ffffffffffffffffffffffffffffffffffffffff1602179055506040518060400160405280600481526020017f544c44520000000000000000000000000000000000000000000000000000000081525060079080519060200190620000f592919062000639565b506040518060400160405280600381526020017f4c45580000000000000000000000000000000000000000000000000000000000815250600890805190602001906200014392919062000639565b506012600960006101000a81548160ff021916908360ff1602179055506001600a553480156200017257600080fd5b5060405162005d6338038062005d63833981018060405260808110156200019857600080fd5b810190808051640100000000811115620001b157600080fd5b82810190506020810184811115620001c857600080fd5b8151856001820283011164010000000082111715620001e657600080fd5b50509291906020018051906020019092919080519060200190929190805190602001909291905050506200022f620002236200040c60201b60201c565b6200041460201b60201c565b60003390506003600d60003373ffffffffffffffffffffffffffffffffffffffff1673ffffffffffffffffffffffffffffffffffffffff1681526020019081526020016000208190555081600460006101000a81548173ffffffffffffffffffffffffffffffffffffffff021916908373ffffffffffffffffffffffffffffffffffffffff16021790555060006001905060008090506040518060c001604052808473ffffffffffffffffffffffffffffffffffffffff1681526020018673ffffffffffffffffffffffffffffffffffffffff168152602001888152602001838152602001828152602001878152506010600084815260200190815260200160002060008201518160000160006101000a81548173ffffffffffffffffffffffffffffffffffffffff021916908373ffffffffffffffffffffffffffffffffffffffff16021790555060208201518160010160006101000a81548173ffffffffffffffffffffffffffffffffffffffff021916908373ffffffffffffffffffffffffffffffffffffffff1602179055506040820151816002019080519060200190620003dd929190620006c0565b50606082015181600301556080820151816004015560a08201518160050155905050505050505050506200076f565b600033905090565b6200042f8160006200047560201b6200525f1790919060201c565b8073ffffffffffffffffffffffffffffffffffffffff167faf9dadec7ca8bd43c539a3a67a52f4303cad98b0dbb6ca3d367674d494000cc760405160405180910390a250565b6200048782826200055960201b60201c565b15620004fb576040517f08c379a000000000000000000000000000000000000000000000000000000000815260040180806020018281038252601f8152602001807f526f6c65733a206163636f756e7420616c72656164792068617320726f6c650081525060200191505060405180910390fd5b60018260000160008373ffffffffffffffffffffffffffffffffffffffff1673ffffffffffffffffffffffffffffffffffffffff16815260200190815260200160002060006101000a81548160ff0219169083151502179055505050565b60008073ffffffffffffffffffffffffffffffffffffffff168273ffffffffffffffffffffffffffffffffffffffff161415620005e2576040517f08c379a000000000000000000000000000000000000000000000000000000000815260040180806020018281038252602281526020018062005d416022913960400191505060405180910390fd5b8260000160008373ffffffffffffffffffffffffffffffffffffffff1673ffffffffffffffffffffffffffffffffffffffff16815260200190815260200160002060009054906101000a900460ff16905092915050565b828054600181600116156101000203166002900490600052602060002090601f016020900481019282601f106200067c57805160ff1916838001178555620006ad565b82800160010185558215620006ad579182015b82811115620006ac5782518255916020019190600101906200068f565b5b509050620006bc919062000747565b5090565b828054600181600116156101000203166002900490600052602060002090601f016020900481019282601f106200070357805160ff191683800117855562000734565b8280016001018555821562000734579182015b828111156200073357825182559160200191906001019062000716565b5b50905062000743919062000747565b5090565b6200076c91905b80821115620007685760008160009055506001016200074e565b5090565b90565b6155c2806200077f6000396000f3fe60806040526004361061025c5760003560e01c80638ffd648c11610144578063c171869d116100b6578063d72aa5651161007a578063d72aa5651461143f578063dd62ed3e1461147a578063ded552dd146114ff578063df2a569814611509578063e94bb54b14611534578063eef192dc146116065761025c565b8063c171869d14611086578063c5b037c7146111d7578063ce405e5314611240578063d04fd24b146113b3578063d17c0fe4146113ee5761025c565b8063a9059cbb11610108578063a9059cbb14610d61578063b2c43bac14610dd4578063b3f0b05d14610e25578063b9f7945114610e3c578063baedad2514610ea1578063bf3df20d146110355761025c565b80638ffd648c146109ec57806392ab5e8f14610a3d57806395d89b4114610b2f578063a457c2d714610bbf578063a8ac236d14610c325761025c565b80633a5c9014116101dd5780635b072333116101a15780635b072333146107835780635cc3ab8e146108755780636b9e9b5b146108cc57806370a08231146108e35780637807f00f14610948578063842c201e146109b15761025c565b80633a5c90141461060657806340822344146106315780634438f9d4146106825780634a91f2e5146106dd5780634f411f7b1461072c5761025c565b8063191a934f11610224578063191a934f1461042f57806323b872dd1461046a578063313ce567146104fd57806336c566101461052e57806339509351146105935761025c565b806306fdde0314610261578063095ea7b3146102f15780630ccc1a1e14610364578063148ea1a41461039f57806318160ddd14610404575b600080fd5b34801561026d57600080fd5b50610276611631565b6040518080602001828103825283818151815260200191508051906020019080838360005b838110156102b657808201518184015260208101905061029b565b50505050905090810190601f1680156102e35780820380516001836020036101000a031916815260200191505b509250505060405180910390f35b3480156102fd57600080fd5b5061034a6004803603604081101561031457600080fd5b81019080803573ffffffffffffffffffffffffffffffffffffffff169060200190929190803590602001909291905050506116cf565b604051808215151515815260200191505060405180910390f35b34801561037057600080fd5b5061039d6004803603602081101561038757600080fd5b81019080803590602001909291905050506116ed565b005b3480156103ab57600080fd5b506103ee600480360360208110156103c257600080fd5b81019080803573ffffffffffffffffffffffffffffffffffffffff1690602001909291905050506119a7565b6040518082815260200191505060405180910390f35b34801561041057600080fd5b506104196119bf565b6040518082815260200191505060405180910390f35b34801561043b57600080fd5b506104686004803603602081101561045257600080fd5b81019080803590602001909291905050506119c9565b005b34801561047657600080fd5b506104e36004803603606081101561048d57600080fd5b81019080803573ffffffffffffffffffffffffffffffffffffffff169060200190929190803573ffffffffffffffffffffffffffffffffffffffff16906020019092919080359060200190929190505050611b4d565b604051808215151515815260200191505060405180910390f35b34801561050957600080fd5b50610512611c26565b604051808260ff1660ff16815260200191505060405180910390f35b34801561053a57600080fd5b5061057d6004803603602081101561055157600080fd5b81019080803573ffffffffffffffffffffffffffffffffffffffff169060200190929190505050611c39565b6040518082815260200191505060405180910390f35b34801561059f57600080fd5b506105ec600480360360408110156105b657600080fd5b81019080803573ffffffffffffffffffffffffffffffffffffffff16906020019092919080359060200190929190505050611c51565b604051808215151515815260200191505060405180910390f35b34801561061257600080fd5b5061061b611d04565b6040518082815260200191505060405180910390f35b34801561063d57600080fd5b506106806004803603602081101561065457600080fd5b81019080803573ffffffffffffffffffffffffffffffffffffffff169060200190929190505050611d0a565b005b34801561068e57600080fd5b506106db600480360360408110156106a557600080fd5b8101908080359060200190929190803573ffffffffffffffffffffffffffffffffffffffff169060200190929190505050611db5565b005b3480156106e957600080fd5b5061072a6004803603606081101561070057600080fd5b81019080803590602001909291908035906020019092919080359060200190929190505050611eb7565b005b34801561073857600080fd5b506107416123a3565b604051808273ffffffffffffffffffffffffffffffffffffffff1673ffffffffffffffffffffffffffffffffffffffff16815260200191505060405180910390f35b34801561078f57600080fd5b50610873600480360360608110156107a657600080fd5b8101908080359060200190929190803590602001906401000000008111156107cd57600080fd5b8201836020820111156107df57600080fd5b8035906020019184600183028401116401000000008311171561080157600080fd5b91908080601f016020809104026020016040519081016040528093929190818152602001838380828437600081840152601f19601f820116905080830192505050505050509192919290803573ffffffffffffffffffffffffffffffffffffffff1690602001909291905050506123c9565b005b34801561088157600080fd5b5061088a6125e0565b604051808273ffffffffffffffffffffffffffffffffffffffff1673ffffffffffffffffffffffffffffffffffffffff16815260200191505060405180910390f35b3480156108d857600080fd5b506108e1612606565b005b3480156108ef57600080fd5b506109326004803603602081101561090657600080fd5b81019080803573ffffffffffffffffffffffffffffffffffffffff169060200190929190505050612618565b6040518082815260200191505060405180910390f35b34801561095457600080fd5b506109976004803603602081101561096b57600080fd5b81019080803573ffffffffffffffffffffffffffffffffffffffff169060200190929190505050612661565b604051808215151515815260200191505060405180910390f35b3480156109bd57600080fd5b506109ea600480360360208110156109d457600080fd5b81019080803590602001909291905050506126ac565b005b3480156109f857600080fd5b50610a3b60048036036020811015610a0f57600080fd5b81019080803573ffffffffffffffffffffffffffffffffffffffff1690602001909291905050506128cf565b005b348015610a4957600080fd5b50610b2d60048036036060811015610a6057600080fd5b8101908080359060200190640100000000811115610a7d57600080fd5b820183602082011115610a8f57600080fd5b80359060200191846001830284011164010000000083111715610ab157600080fd5b91908080601f016020809104026020016040519081016040528093929190818152602001838380828437600081840152601f19601f82011690508083019250505050505050919291929080359060200190929190803573ffffffffffffffffffffffffffffffffffffffff169060200190929190505050612aef565b005b348015610b3b57600080fd5b50610b44612cd2565b6040518080602001828103825283818151815260200191508051906020019080838360005b83811015610b84578082015181840152602081019050610b69565b50505050905090810190601f168015610bb15780820380516001836020036101000a031916815260200191505b509250505060405180910390f35b348015610bcb57600080fd5b50610c1860048036036040811015610be257600080fd5b81019080803573ffffffffffffffffffffffffffffffffffffffff16906020019092919080359060200190929190505050612d70565b604051808215151515815260200191505060405180910390f35b348015610c3e57600080fd5b50610c6b60048036036020811015610c5557600080fd5b8101908080359060200190929190505050612e3d565b604051808773ffffffffffffffffffffffffffffffffffffffff1673ffffffffffffffffffffffffffffffffffffffff1681526020018673ffffffffffffffffffffffffffffffffffffffff1673ffffffffffffffffffffffffffffffffffffffff16815260200180602001858152602001848152602001838152602001828103825286818151815260200191508051906020019080838360005b83811015610d21578082015181840152602081019050610d06565b50505050905090810190601f168015610d4e5780820380516001836020036101000a031916815260200191505b5097505050505050505060405180910390f35b348015610d6d57600080fd5b50610dba60048036036040811015610d8457600080fd5b81019080803573ffffffffffffffffffffffffffffffffffffffff16906020019092919080359060200190929190505050612f51565b604051808215151515815260200191505060405180910390f35b348015610de057600080fd5b50610e2360048036036020811015610df757600080fd5b81019080803573ffffffffffffffffffffffffffffffffffffffff169060200190929190505050612f6f565b005b348015610e3157600080fd5b50610e3a613047565b005b348015610e4857600080fd5b50610e8b60048036036020811015610e5f57600080fd5b81019080803573ffffffffffffffffffffffffffffffffffffffff1690602001909291905050506131b0565b6040518082815260200191505060405180910390f35b348015610ead57600080fd5b50610eda60048036036020811015610ec457600080fd5b81019080803590602001909291905050506131c8565b604051808e73ffffffffffffffffffffffffffffffffffffffff1673ffffffffffffffffffffffffffffffffffffffff1681526020018d73ffffffffffffffffffffffffffffffffffffffff1673ffffffffffffffffffffffffffffffffffffffff1681526020018c73ffffffffffffffffffffffffffffffffffffffff1673ffffffffffffffffffffffffffffffffffffffff168152602001806020018b81526020018a8152602001898152602001888152602001878152602001868152602001858152602001841515151581526020018315151515815260200182810382528c818151815260200191508051906020019080838360005b83811015610fee578082015181840152602081019050610fd3565b50505050905090810190601f16801561101b5780820380516001836020036101000a031916815260200191505b509e50505050505050505050505050505060405180910390f35b34801561104157600080fd5b506110846004803603602081101561105857600080fd5b81019080803573ffffffffffffffffffffffffffffffffffffffff169060200190929190505050613340565b005b34801561109257600080fd5b506111d560048036036101008110156110aa57600080fd5b81019080803573ffffffffffffffffffffffffffffffffffffffff169060200190929190803573ffffffffffffffffffffffffffffffffffffffff169060200190929190803573ffffffffffffffffffffffffffffffffffffffff1690602001909291908035906020019064010000000081111561112757600080fd5b82018360208201111561113957600080fd5b8035906020019184600183028401116401000000008311171561115b57600080fd5b91908080601f016020809104026020016040519081016040528093929190818152602001838380828437600081840152601f19601f820116905080830192505050505050509192919290803590602001909291908035906020019092919080359060200190929190803590602001909291905050506133eb565b005b3480156111e357600080fd5b50611226600480360360208110156111fa57600080fd5b81019080803573ffffffffffffffffffffffffffffffffffffffff16906020019092919050505061371e565b604051808215151515815260200191505060405180910390f35b34801561124c57600080fd5b506112796004803603602081101561126357600080fd5b810190808035906020019092919050505061373b565b604051808873ffffffffffffffffffffffffffffffffffffffff1673ffffffffffffffffffffffffffffffffffffffff168152602001806020018060200187815260200186815260200185815260200184151515158152602001838103835289818151815260200191508051906020019080838360005b8381101561130b5780820151818401526020810190506112f0565b50505050905090810190601f1680156113385780820380516001836020036101000a031916815260200191505b50838103825288818151815260200191508051906020019080838360005b83811015611371578082015181840152602081019050611356565b50505050905090810190601f16801561139e5780820380516001836020036101000a031916815260200191505b50995050505050505050505060405180910390f35b3480156113bf57600080fd5b506113ec600480360360208110156113d657600080fd5b81019080803590602001909291905050506138da565b005b3480156113fa57600080fd5b5061143d6004803603602081101561141157600080fd5b81019080803573ffffffffffffffffffffffffffffffffffffffff169060200190929190505050613b2d565b005b34801561144b57600080fd5b506114786004803603602081101561146257600080fd5b8101908080359060200190929190505050613cb5565b005b34801561148657600080fd5b506114e96004803603604081101561149d57600080fd5b81019080803573ffffffffffffffffffffffffffffffffffffffff169060200190929190803573ffffffffffffffffffffffffffffffffffffffff16906020019092919050505061406d565b6040518082815260200191505060405180910390f35b6115076140f4565b005b34801561151557600080fd5b5061151e6142c1565b6040518082815260200191505060405180910390f35b34801561154057600080fd5b506116046004803603604081101561155757600080fd5b81019080803590602001909291908035906020019064010000000081111561157e57600080fd5b82018360208201111561159057600080fd5b803590602001918460018302840111640100000000831117156115b257600080fd5b91908080601f016020809104026020016040519081016040528093929190818152602001838380828437600081840152601f19601f8201169050808301925050505050505091929192905050506142c7565b005b34801561161257600080fd5b5061161b614538565b6040518082815260200191505060405180910390f35b60078054600181600116156101000203166002900480601f0160208091040260200160405190810160405280929190818152602001828054600181600116156101000203166002900480156116c75780601f1061169c576101008083540402835291602001916116c7565b820191906000526020600020905b8154815290600101906020018083116116aa57829003601f168201915b505050505081565b60006116e36116dc61453e565b8484614546565b6001905092915050565b60006011600083815260200190815260200160002090508060000160009054906101000a900473ffffffffffffffffffffffffffffffffffffffff1673ffffffffffffffffffffffffffffffffffffffff163373ffffffffffffffffffffffffffffffffffffffff161461176057600080fd5b6040518060e001604052803373ffffffffffffffffffffffffffffffffffffffff1681526020016040518060400160405280601181526020017f5369676e6174757265205265766f6b65640000000000000000000000000000008152508152602001826002018054600181600116156101000203166002900480601f01602080910402602001604051908101604052809291908181526020018280546001816001161561010002031660029004801561185a5780601f1061182f5761010080835404028352916020019161185a565b820191906000526020600020905b81548152906001019060200180831161183d57829003601f168201915b505050505081526020018260030154815260200182600401548152602001428152602001600115158152506011600084815260200190815260200160002060008201518160000160006101000a81548173ffffffffffffffffffffffffffffffffffffffff021916908373ffffffffffffffffffffffffffffffffffffffff16021790555060208201518160010190805190602001906118fb92919061533a565b50604082015181600201908051906020019061191892919061533a565b50606082015181600301556080820151816004015560a0820151816005015560c08201518160060160006101000a81548160ff0219169083151502179055509050503373ffffffffffffffffffffffffffffffffffffffff168282600301547f78e691912208445cd6aade3c576114388a892f348b5b228346e492dc83a21c6660405160405180910390a45050565b600e6020528060005260406000206000915090505481565b6000600354905090565b60006012600083815260200190815260200160002090506001151581600b0160009054906101000a900460ff16151514611a0257600080fd5b6000151581600b0160019054906101000a900460ff16151514611a2457600080fd5b8060070154421115611a3557600080fd5b8060000160009054906101000a900473ffffffffffffffffffffffffffffffffffffffff1673ffffffffffffffffffffffffffffffffffffffff163373ffffffffffffffffffffffffffffffffffffffff161480611ae257508060010160009054906101000a900473ffffffffffffffffffffffffffffffffffffffff1673ffffffffffffffffffffffffffffffffffffffff163373ffffffffffffffffffffffffffffffffffffffff16145b611aeb57600080fd5b80600a0154816009015410611aff57600080fd5b600181600b0160016101000a81548160ff021916908315150217905550817f7e3d476b0ad3176eefadbd6672356ef3884fad75f1344623a88d4a808784233660405160405180910390a25050565b6000611b5a84848461473d565b611c1b84611b6661453e565b611c16856040518060600160405280602881526020016154be60289139600260008b73ffffffffffffffffffffffffffffffffffffffff1673ffffffffffffffffffffffffffffffffffffffff1681526020019081526020016000206000611bcc61453e565b73ffffffffffffffffffffffffffffffffffffffff1673ffffffffffffffffffffffffffffffffffffffff168152602001908152602001600020546149f79092919063ffffffff16565b614546565b600190509392505050565b600960009054906101000a900460ff1681565b600f6020528060005260406000206000915090505481565b6000611cfa611c5e61453e565b84611cf58560026000611c6f61453e565b73ffffffffffffffffffffffffffffffffffffffff1673ffffffffffffffffffffffffffffffffffffffff16815260200190815260200160002060008973ffffffffffffffffffffffffffffffffffffffff1673ffffffffffffffffffffffffffffffffffffffff16815260200190815260200160002054614ab790919063ffffffff16565b614546565b6001905092915050565b600b5481565b600460009054906101000a900473ffffffffffffffffffffffffffffffffffffffff1673ffffffffffffffffffffffffffffffffffffffff163373ffffffffffffffffffffffffffffffffffffffff1614611d6457600080fd5b611d6d81614b3f565b6000600d60008373ffffffffffffffffffffffffffffffffffffffff1673ffffffffffffffffffffffffffffffffffffffff1681526020019081526020016000208190555050565b60006012600084815260200190815260200160002090506000151581600b0160019054906101000a900460ff16151514611dee57600080fd5b8060070154421115611dff57600080fd5b8060000160009054906101000a900473ffffffffffffffffffffffffffffffffffffffff1673ffffffffffffffffffffffffffffffffffffffff163373ffffffffffffffffffffffffffffffffffffffff1614611e5b57600080fd5b80600a0154816009015410611e6f57600080fd5b818160000160006101000a81548173ffffffffffffffffffffffffffffffffffffffff021916908373ffffffffffffffffffffffffffffffffffffffff160217905550505050565b60006012600085815260200190815260200160002090506000611eeb826009015483600a0154614b9990919063ffffffff16565b90506000611f03601483614be390919063ffffffff16565b90506001151583600b0160019054906101000a900460ff16151514611f2757600080fd5b611f3a8183614b9990919063ffffffff16565b611f4d8587614ab790919063ffffffff16565b14611f5757600080fd5b8260000160009054906101000a900473ffffffffffffffffffffffffffffffffffffffff1673ffffffffffffffffffffffffffffffffffffffff163373ffffffffffffffffffffffffffffffffffffffff161415611fb457600080fd5b8260010160009054906101000a900473ffffffffffffffffffffffffffffffffffffffff1673ffffffffffffffffffffffffffffffffffffffff163373ffffffffffffffffffffffffffffffffffffffff16141561201157600080fd5b61201a33612661565b61202357600080fd5b674563918244f4000061203533612618565b101561204057600080fd5b8260020160009054906101000a900473ffffffffffffffffffffffffffffffffffffffff1673ffffffffffffffffffffffffffffffffffffffff1663a9059cbb8460000160009054906101000a900473ffffffffffffffffffffffffffffffffffffffff16876040518363ffffffff1660e01b8152600401808373ffffffffffffffffffffffffffffffffffffffff1673ffffffffffffffffffffffffffffffffffffffff16815260200182815260200192505050602060405180830381600087803b15801561210f57600080fd5b505af1158015612123573d6000803e3d6000fd5b505050506040513d602081101561213957600080fd5b8101908080519060200190929190505050508260020160009054906101000a900473ffffffffffffffffffffffffffffffffffffffff1673ffffffffffffffffffffffffffffffffffffffff1663a9059cbb8460010160009054906101000a900473ffffffffffffffffffffffffffffffffffffffff16866040518363ffffffff1660e01b8152600401808373ffffffffffffffffffffffffffffffffffffffff1673ffffffffffffffffffffffffffffffffffffffff16815260200182815260200192505050602060405180830381600087803b15801561221a57600080fd5b505af115801561222e573d6000803e3d6000fd5b505050506040513d602081101561224457600080fd5b8101908080519060200190929190505050508260020160009054906101000a900473ffffffffffffffffffffffffffffffffffffffff1673ffffffffffffffffffffffffffffffffffffffff1663a9059cbb33836040518363ffffffff1660e01b8152600401808373ffffffffffffffffffffffffffffffffffffffff1673ffffffffffffffffffffffffffffffffffffffff16815260200182815260200192505050602060405180830381600087803b15801561230157600080fd5b505af1158015612315573d6000803e3d6000fd5b505050506040513d602081101561232b57600080fd5b81019080805190602001909291905050505061234f33670de0b6b3a7640000614c2d565b612366828460090154614ab790919063ffffffff16565b8360090181905550857f148a25ee2a7671350ab878ff183447de8ae5afa2ee0ae7d5ee1ad6b25c4868c260405160405180910390a2505050505050565b600460009054906101000a900473ffffffffffffffffffffffffffffffffffffffff1681565b60006010600085815260200190815260200160002090508060000160009054906101000a900473ffffffffffffffffffffffffffffffffffffffff1673ffffffffffffffffffffffffffffffffffffffff163373ffffffffffffffffffffffffffffffffffffffff161461243c57600080fd5b600061245660018360040154614ab790919063ffffffff16565b90506040518060c001604052803373ffffffffffffffffffffffffffffffffffffffff1681526020018473ffffffffffffffffffffffffffffffffffffffff16815260200185815260200186815260200182815260200183600501548152506010600087815260200190815260200160002060008201518160000160006101000a81548173ffffffffffffffffffffffffffffffffffffffff021916908373ffffffffffffffffffffffffffffffffffffffff16021790555060208201518160010160006101000a81548173ffffffffffffffffffffffffffffffffffffffff021916908373ffffffffffffffffffffffffffffffffffffffff160217905550604082015181600201908051906020019061257292919061533a565b50606082015181600301556080820151816004015560a082015181600501559050503373ffffffffffffffffffffffffffffffffffffffff1681867f74a136d198c939d9979c17900e5845d8258c56f0e210b3066c1af58f675cd75360405160405180910390a45050505050565b600560009054906101000a900473ffffffffffffffffffffffffffffffffffffffff1681565b61261661261161453e565b614b3f565b565b6000600160008373ffffffffffffffffffffffffffffffffffffffff1673ffffffffffffffffffffffffffffffffffffffff168152602001908152602001600020549050919050565b600080600d60008473ffffffffffffffffffffffffffffffffffffffff1673ffffffffffffffffffffffffffffffffffffffff16815260200190815260200160002054119050919050565b60006012600083815260200190815260200160002090506001151581600b0160009054906101000a900460ff161515146126e557600080fd5b6000151581600b0160019054906101000a900460ff1615151461270757600080fd5b806007015442101561271857600080fd5b8060000160009054906101000a900473ffffffffffffffffffffffffffffffffffffffff1673ffffffffffffffffffffffffffffffffffffffff163373ffffffffffffffffffffffffffffffffffffffff161461277457600080fd5b6000612791826009015483600a0154614b9990919063ffffffff16565b9050600081116127a057600080fd5b8160020160009054906101000a900473ffffffffffffffffffffffffffffffffffffffff1673ffffffffffffffffffffffffffffffffffffffff1663a9059cbb8360000160009054906101000a900473ffffffffffffffffffffffffffffffffffffffff16836040518363ffffffff1660e01b8152600401808373ffffffffffffffffffffffffffffffffffffffff1673ffffffffffffffffffffffffffffffffffffffff16815260200182815260200192505050602060405180830381600087803b15801561286f57600080fd5b505af1158015612883573d6000803e3d6000fd5b505050506040513d602081101561289957600080fd5b8101908080519060200190929190505050506128c2818360090154614ab790919063ffffffff16565b8260090181905550505050565b62015180612925600e60003373ffffffffffffffffffffffffffffffffffffffff1673ffffffffffffffffffffffffffffffffffffffff1681526020019081526020016000205442614b9990919063ffffffff16565b1161292f57600080fd5b61293833612661565b61294157600080fd5b8073ffffffffffffffffffffffffffffffffffffffff163373ffffffffffffffffffffffffffffffffffffffff16141561297a57600080fd5b6003600d60008373ffffffffffffffffffffffffffffffffffffffff1673ffffffffffffffffffffffffffffffffffffffff16815260200190815260200160002054106129c657600080fd5b6000600d60008373ffffffffffffffffffffffffffffffffffffffff1673ffffffffffffffffffffffffffffffffffffffff1681526020019081526020016000205411612a1257600080fd5b612a656001600d60008473ffffffffffffffffffffffffffffffffffffffff1673ffffffffffffffffffffffffffffffffffffffff16815260200190815260200160002054614ab790919063ffffffff16565b600d60008373ffffffffffffffffffffffffffffffffffffffff1673ffffffffffffffffffffffffffffffffffffffff1681526020019081526020016000208190555042600e60003373ffffffffffffffffffffffffffffffffffffffff1673ffffffffffffffffffffffffffffffffffffffff1681526020019081526020016000208190555050565b612af833612661565b612b0157600080fd5b6000612b196001600a54614ab790919063ffffffff16565b90506000809050612b366001600a54614ab790919063ffffffff16565b600a819055506040518060c001604052803373ffffffffffffffffffffffffffffffffffffffff1681526020018473ffffffffffffffffffffffffffffffffffffffff168152602001868152602001838152602001828152602001858152506010600084815260200190815260200160002060008201518160000160006101000a81548173ffffffffffffffffffffffffffffffffffffffff021916908373ffffffffffffffffffffffffffffffffffffffff16021790555060208201518160010160006101000a81548173ffffffffffffffffffffffffffffffffffffffff021916908373ffffffffffffffffffffffffffffffffffffffff1602179055506040820151816002019080519060200190612c5292919061533a565b50606082015181600301556080820151816004015560a08201518160050155905050612c8633670de0b6b3a7640000614c2d565b3373ffffffffffffffffffffffffffffffffffffffff1681837f74a136d198c939d9979c17900e5845d8258c56f0e210b3066c1af58f675cd75360405160405180910390a45050505050565b60088054600181600116156101000203166002900480601f016020809104026020016040519081016040528092919081815260200182805460018160011615610100020316600290048015612d685780601f10612d3d57610100808354040283529160200191612d68565b820191906000526020600020905b815481529060010190602001808311612d4b57829003601f168201915b505050505081565b6000612e33612d7d61453e565b84612e2e856040518060600160405280602581526020016155726025913960026000612da761453e565b73ffffffffffffffffffffffffffffffffffffffff1673ffffffffffffffffffffffffffffffffffffffff16815260200190815260200160002060008a73ffffffffffffffffffffffffffffffffffffffff1673ffffffffffffffffffffffffffffffffffffffff168152602001908152602001600020546149f79092919063ffffffff16565b614546565b6001905092915050565b60106020528060005260406000206000915090508060000160009054906101000a900473ffffffffffffffffffffffffffffffffffffffff16908060010160009054906101000a900473ffffffffffffffffffffffffffffffffffffffff1690806002018054600181600116156101000203166002900480601f016020809104026020016040519081016040528092919081815260200182805460018160011615610100020316600290048015612f355780601f10612f0a57610100808354040283529160200191612f35565b820191906000526020600020905b815481529060010190602001808311612f1857829003601f168201915b5050505050908060030154908060040154908060050154905086565b6000612f65612f5e61453e565b848461473d565b6001905092915050565b600460009054906101000a900473ffffffffffffffffffffffffffffffffffffffff1673ffffffffffffffffffffffffffffffffffffffff163373ffffffffffffffffffffffffffffffffffffffff1614612fc957600080fd5b600073ffffffffffffffffffffffffffffffffffffffff168173ffffffffffffffffffffffffffffffffffffffff16141561300357600080fd5b80600460006101000a81548173ffffffffffffffffffffffffffffffffffffffff021916908373ffffffffffffffffffffffffffffffffffffffff16021790555050565b61305761305261453e565b61371e565b6130ac576040517f08c379a000000000000000000000000000000000000000000000000000000000815260040180806020018281038252603081526020018061546d6030913960400191505060405180910390fd5b6276a700613102600f60003373ffffffffffffffffffffffffffffffffffffffff1673ffffffffffffffffffffffffffffffffffffffff1681526020019081526020016000205442614b9990919063ffffffff16565b1161310c57600080fd5b61312561311761453e565b678ac7230489e80000614dea565b6003600d60003373ffffffffffffffffffffffffffffffffffffffff1673ffffffffffffffffffffffffffffffffffffffff1681526020019081526020016000208190555042600f60003373ffffffffffffffffffffffffffffffffffffffff1673ffffffffffffffffffffffffffffffffffffffff16815260200190815260200160002081905550565b600d6020528060005260406000206000915090505481565b60126020528060005260406000206000915090508060000160009054906101000a900473ffffffffffffffffffffffffffffffffffffffff16908060010160009054906101000a900473ffffffffffffffffffffffffffffffffffffffff16908060020160009054906101000a900473ffffffffffffffffffffffffffffffffffffffff1690806003018054600181600116156101000203166002900480601f0160208091040260200160405190810160405280929190818152602001828054600181600116156101000203166002900480156132e65780601f106132bb576101008083540402835291602001916132e6565b820191906000526020600020905b8154815290600101906020018083116132c957829003601f168201915b50505050509080600401549080600501549080600601549080600701549080600801549080600901549080600a01549080600b0160009054906101000a900460ff169080600b0160019054906101000a900460ff1690508d565b600460009054906101000a900473ffffffffffffffffffffffffffffffffffffffff1673ffffffffffffffffffffffffffffffffffffffff163373ffffffffffffffffffffffffffffffffffffffff161461339a57600080fd5b6133a381614fa4565b6001600d60008373ffffffffffffffffffffffffffffffffffffffff1673ffffffffffffffffffffffffffffffffffffffff1681526020019081526020016000208190555050565b600081116133f857600080fd5b600a5481111561340757600080fd5b8183111561341457600080fd5b8773ffffffffffffffffffffffffffffffffffffffff163373ffffffffffffffffffffffffffffffffffffffff161461344c57600080fd5b60006134646001600c54614ab790919063ffffffff16565b9050600061347b8642614ab790919063ffffffff16565b90506134936001600c54614ab790919063ffffffff16565b600c81905550604051806101a001604052808b73ffffffffffffffffffffffffffffffffffffffff1681526020018a73ffffffffffffffffffffffffffffffffffffffff1681526020018973ffffffffffffffffffffffffffffffffffffffff16815260200188815260200184815260200183815260200142815260200182815260200186815260200160008152602001858152602001600015158152602001600015158152506012600084815260200190815260200160002060008201518160000160006101000a81548173ffffffffffffffffffffffffffffffffffffffff021916908373ffffffffffffffffffffffffffffffffffffffff16021790555060208201518160010160006101000a81548173ffffffffffffffffffffffffffffffffffffffff021916908373ffffffffffffffffffffffffffffffffffffffff16021790555060408201518160020160006101000a81548173ffffffffffffffffffffffffffffffffffffffff021916908373ffffffffffffffffffffffffffffffffffffffff160217905550606082015181600301908051906020019061363e92919061533a565b506080820151816004015560a0820151816005015560c0820151816006015560e082015181600701556101008201518160080155610120820151816009015561014082015181600a015561016082015181600b0160006101000a81548160ff02191690831515021790555061018082015181600b0160016101000a81548160ff0219169083151502179055509050503373ffffffffffffffffffffffffffffffffffffffff1683837f19ef3a90ba0bbfeb1f5f68452b45c638804b6d9dd44829975c53b83c1ac21ed360405160405180910390a450505050505050505050565b6000613734826000614ffe90919063ffffffff16565b9050919050565b60116020528060005260406000206000915090508060000160009054906101000a900473ffffffffffffffffffffffffffffffffffffffff1690806001018054600181600116156101000203166002900480601f01602080910402602001604051908101604052809291908181526020018280546001816001161561010002031660029004801561380d5780601f106137e25761010080835404028352916020019161380d565b820191906000526020600020905b8154815290600101906020018083116137f057829003601f168201915b505050505090806002018054600181600116156101000203166002900480601f0160208091040260200160405190810160405280929190818152602001828054600181600116156101000203166002900480156138ab5780601f10613880576101008083540402835291602001916138ab565b820191906000526020600020905b81548152906001019060200180831161388e57829003601f168201915b5050505050908060030154908060040154908060050154908060060160009054906101000a900460ff16905087565b60006012600083815260200190815260200160002090506000151581600b0160009054906101000a900460ff1615151461391357600080fd5b806007015442111561392457600080fd5b8060010160009054906101000a900473ffffffffffffffffffffffffffffffffffffffff1673ffffffffffffffffffffffffffffffffffffffff163373ffffffffffffffffffffffffffffffffffffffff161461398057600080fd5b600181600b0160006101000a81548160ff0219169083151502179055508060020160009054906101000a900473ffffffffffffffffffffffffffffffffffffffff1673ffffffffffffffffffffffffffffffffffffffff166323b872dd8260000160009054906101000a900473ffffffffffffffffffffffffffffffffffffffff163084600a01546040518463ffffffff1660e01b8152600401808473ffffffffffffffffffffffffffffffffffffffff1673ffffffffffffffffffffffffffffffffffffffff1681526020018373ffffffffffffffffffffffffffffffffffffffff1673ffffffffffffffffffffffffffffffffffffffff1681526020018281526020019350505050602060405180830381600087803b158015613aa457600080fd5b505af1158015613ab8573d6000803e3d6000fd5b505050506040513d6020811015613ace57600080fd5b8101908080519060200190929190505050503373ffffffffffffffffffffffffffffffffffffffff168160040154837fb870585b1a7af0621dd1bd66599cd5443d771b1cab95134a8ae3f5268dbf30ca60405160405180910390a45050565b62015180613b83600e60003373ffffffffffffffffffffffffffffffffffffffff1673ffffffffffffffffffffffffffffffffffffffff1681526020019081526020016000205442614b9990919063ffffffff16565b11613b8d57600080fd5b613b9633612661565b613b9f57600080fd5b8073ffffffffffffffffffffffffffffffffffffffff163373ffffffffffffffffffffffffffffffffffffffff161415613bd857600080fd5b613c2b6001600d60008473ffffffffffffffffffffffffffffffffffffffff1673ffffffffffffffffffffffffffffffffffffffff16815260200190815260200160002054614b9990919063ffffffff16565b600d60008373ffffffffffffffffffffffffffffffffffffffff1673ffffffffffffffffffffffffffffffffffffffff1681526020019081526020016000208190555042600e60003373ffffffffffffffffffffffffffffffffffffffff1673ffffffffffffffffffffffffffffffffffffffff1681526020019081526020016000208190555050565b60006012600083815260200190815260200160002090506000601060008360040154815260200190815260200160002090506001151582600b0160009054906101000a900460ff16151514613d0957600080fd5b6000151582600b0160019054906101000a900460ff16151514613d2b57600080fd5b8160070154421115613d3c57600080fd5b8160000160009054906101000a900473ffffffffffffffffffffffffffffffffffffffff1673ffffffffffffffffffffffffffffffffffffffff163373ffffffffffffffffffffffffffffffffffffffff1614613d9857600080fd5b81600a0154613db883600801548460090154614ab790919063ffffffff16565b1115613dc357600080fd5b6000613de082600501548460080154614be390919063ffffffff16565b90508260020160009054906101000a900473ffffffffffffffffffffffffffffffffffffffff1673ffffffffffffffffffffffffffffffffffffffff1663a9059cbb8460010160009054906101000a900473ffffffffffffffffffffffffffffffffffffffff16613e5e848760080154614b9990919063ffffffff16565b6040518363ffffffff1660e01b8152600401808373ffffffffffffffffffffffffffffffffffffffff1673ffffffffffffffffffffffffffffffffffffffff16815260200182815260200192505050602060405180830381600087803b158015613ec757600080fd5b505af1158015613edb573d6000803e3d6000fd5b505050506040513d6020811015613ef157600080fd5b8101908080519060200190929190505050508260020160009054906101000a900473ffffffffffffffffffffffffffffffffffffffff1673ffffffffffffffffffffffffffffffffffffffff1663a9059cbb8360010160009054906101000a900473ffffffffffffffffffffffffffffffffffffffff16836040518363ffffffff1660e01b8152600401808373ffffffffffffffffffffffffffffffffffffffff1673ffffffffffffffffffffffffffffffffffffffff16815260200182815260200192505050602060405180830381600087803b158015613fd257600080fd5b505af1158015613fe6573d6000803e3d6000fd5b505050506040513d6020811015613ffc57600080fd5b81019080805190602001909291905050505061402983600801548460090154614ab790919063ffffffff16565b8360090181905550826004015483600501547fef53713ee4f072f79f4d516084e3f4d15f2cde709d2091235b37ae719c272dd660405160405180910390a350505050565b6000600260008473ffffffffffffffffffffffffffffffffffffffff1673ffffffffffffffffffffffffffffffffffffffff16815260200190815260200160002060008373ffffffffffffffffffffffffffffffffffffffff1673ffffffffffffffffffffffffffffffffffffffff16815260200190815260200160002054905092915050565b6141046140ff61453e565b61371e565b614159576040517f08c379a000000000000000000000000000000000000000000000000000000000815260040180806020018281038252603081526020018061546d6030913960400191505060405180910390fd5b6276a7006141af600f60003373ffffffffffffffffffffffffffffffffffffffff1673ffffffffffffffffffffffffffffffffffffffff1681526020019081526020016000205442614b9990919063ffffffff16565b116141b957600080fd5b67016345785d8a000034146141cd57600080fd5b6003600d60003373ffffffffffffffffffffffffffffffffffffffff1673ffffffffffffffffffffffffffffffffffffffff16815260200190815260200160002081905550600460009054906101000a900473ffffffffffffffffffffffffffffffffffffffff1673ffffffffffffffffffffffffffffffffffffffff166108fc349081150290604051600060405180830381858888f1935050505015801561427a573d6000803e3d6000fd5b5042600f60003373ffffffffffffffffffffffffffffffffffffffff1673ffffffffffffffffffffffffffffffffffffffff16815260200190815260200160002081905550565b600c5481565b600082116142d457600080fd5b600a548211156142e357600080fd5b600060106000848152602001908152602001600020905060006143126001600b54614ab790919063ffffffff16565b905061432a6001600b54614ab790919063ffffffff16565b600b819055506040518060e001604052803373ffffffffffffffffffffffffffffffffffffffff168152602001836002018054600181600116156101000203166002900480601f0160208091040260200160405190810160405280929190818152602001828054600181600116156101000203166002900480156143ef5780601f106143c4576101008083540402835291602001916143ef565b820191906000526020600020905b8154815290600101906020018083116143d257829003601f168201915b50505050508152602001848152602001858152602001828152602001428152602001600015158152506011600083815260200190815260200160002060008201518160000160006101000a81548173ffffffffffffffffffffffffffffffffffffffff021916908373ffffffffffffffffffffffffffffffffffffffff160217905550602082015181600101908051906020019061448e92919061533a565b5060408201518160020190805190602001906144ab92919061533a565b50606082015181600301556080820151816004015560a0820151816005015560c08201518160060160006101000a81548160ff0219169083151502179055509050503373ffffffffffffffffffffffffffffffffffffffff1681857f78e691912208445cd6aade3c576114388a892f348b5b228346e492dc83a21c6660405160405180910390a450505050565b600a5481565b600033905090565b600073ffffffffffffffffffffffffffffffffffffffff168373ffffffffffffffffffffffffffffffffffffffff1614156145cc576040517f08c379a000000000000000000000000000000000000000000000000000000000815260040180806020018281038252602481526020018061554e6024913960400191505060405180910390fd5b600073ffffffffffffffffffffffffffffffffffffffff168273ffffffffffffffffffffffffffffffffffffffff161415614652576040517f08c379a00000000000000000000000000000000000000000000000000000000081526004018080602001828103825260228152602001806154256022913960400191505060405180910390fd5b80600260008573ffffffffffffffffffffffffffffffffffffffff1673ffffffffffffffffffffffffffffffffffffffff16815260200190815260200160002060008473ffffffffffffffffffffffffffffffffffffffff1673ffffffffffffffffffffffffffffffffffffffff168152602001908152602001600020819055508173ffffffffffffffffffffffffffffffffffffffff168373ffffffffffffffffffffffffffffffffffffffff167f8c5be1e5ebec7d5bd14f71427d1e84f3dd0314c0f7b2291e5b200ac8c7c3b925836040518082815260200191505060405180910390a3505050565b600073ffffffffffffffffffffffffffffffffffffffff168373ffffffffffffffffffffffffffffffffffffffff1614156147c3576040517f08c379a00000000000000000000000000000000000000000000000000000000081526004018080602001828103825260258152602001806155296025913960400191505060405180910390fd5b600073ffffffffffffffffffffffffffffffffffffffff168273ffffffffffffffffffffffffffffffffffffffff161415614849576040517f08c379a00000000000000000000000000000000000000000000000000000000081526004018080602001828103825260238152602001806153e06023913960400191505060405180910390fd5b6148b58160405180606001604052806026815260200161544760269139600160008773ffffffffffffffffffffffffffffffffffffffff1673ffffffffffffffffffffffffffffffffffffffff168152602001908152602001600020546149f79092919063ffffffff16565b600160008573ffffffffffffffffffffffffffffffffffffffff1673ffffffffffffffffffffffffffffffffffffffff1681526020019081526020016000208190555061494a81600160008573ffffffffffffffffffffffffffffffffffffffff1673ffffffffffffffffffffffffffffffffffffffff16815260200190815260200160002054614ab790919063ffffffff16565b600160008473ffffffffffffffffffffffffffffffffffffffff1673ffffffffffffffffffffffffffffffffffffffff168152602001908152602001600020819055508173ffffffffffffffffffffffffffffffffffffffff168373ffffffffffffffffffffffffffffffffffffffff167fddf252ad1be2c89b69c2b068fc378daa952ba7f163c4a11628f55a4df523b3ef836040518082815260200191505060405180910390a3505050565b6000838311158290614aa4576040517f08c379a00000000000000000000000000000000000000000000000000000000081526004018080602001828103825283818151815260200191508051906020019080838360005b83811015614a69578082015181840152602081019050614a4e565b50505050905090810190601f168015614a965780820380516001836020036101000a031916815260200191505b509250505060405180910390fd5b5060008385039050809150509392505050565b600080828401905083811015614b35576040517f08c379a000000000000000000000000000000000000000000000000000000000815260040180806020018281038252601b8152602001807f536166654d6174683a206164646974696f6e206f766572666c6f77000000000081525060200191505060405180910390fd5b8091505092915050565b614b538160006150dc90919063ffffffff16565b8073ffffffffffffffffffffffffffffffffffffffff167f53174da9c76772131eeddee8206e68161c4e0986589c8f8176bc241adee85fd460405160405180910390a250565b6000614bdb83836040518060400160405280601e81526020017f536166654d6174683a207375627472616374696f6e206f766572666c6f7700008152506149f7565b905092915050565b6000614c2583836040518060400160405280601a81526020017f536166654d6174683a206469766973696f6e206279207a65726f000000000000815250615199565b905092915050565b600073ffffffffffffffffffffffffffffffffffffffff168273ffffffffffffffffffffffffffffffffffffffff161415614cd0576040517f08c379a000000000000000000000000000000000000000000000000000000000815260040180806020018281038252601f8152602001807f45524332303a206d696e7420746f20746865207a65726f20616464726573730081525060200191505060405180910390fd5b614ce581600354614ab790919063ffffffff16565b600381905550614d3d81600160008573ffffffffffffffffffffffffffffffffffffffff1673ffffffffffffffffffffffffffffffffffffffff16815260200190815260200160002054614ab790919063ffffffff16565b600160008473ffffffffffffffffffffffffffffffffffffffff1673ffffffffffffffffffffffffffffffffffffffff168152602001908152602001600020819055508173ffffffffffffffffffffffffffffffffffffffff16600073ffffffffffffffffffffffffffffffffffffffff167fddf252ad1be2c89b69c2b068fc378daa952ba7f163c4a11628f55a4df523b3ef836040518082815260200191505060405180910390a35050565b600073ffffffffffffffffffffffffffffffffffffffff168273ffffffffffffffffffffffffffffffffffffffff161415614e70576040517f08c379a00000000000000000000000000000000000000000000000000000000081526004018080602001828103825260218152602001806155086021913960400191505060405180910390fd5b614edc8160405180606001604052806022815260200161540360229139600160008673ffffffffffffffffffffffffffffffffffffffff1673ffffffffffffffffffffffffffffffffffffffff168152602001908152602001600020546149f79092919063ffffffff16565b600160008473ffffffffffffffffffffffffffffffffffffffff1673ffffffffffffffffffffffffffffffffffffffff16815260200190815260200160002081905550614f3481600354614b9990919063ffffffff16565b600381905550600073ffffffffffffffffffffffffffffffffffffffff168273ffffffffffffffffffffffffffffffffffffffff167fddf252ad1be2c89b69c2b068fc378daa952ba7f163c4a11628f55a4df523b3ef836040518082815260200191505060405180910390a35050565b614fb881600061525f90919063ffffffff16565b8073ffffffffffffffffffffffffffffffffffffffff167faf9dadec7ca8bd43c539a3a67a52f4303cad98b0dbb6ca3d367674d494000cc760405160405180910390a250565b60008073ffffffffffffffffffffffffffffffffffffffff168273ffffffffffffffffffffffffffffffffffffffff161415615085576040517f08c379a00000000000000000000000000000000000000000000000000000000081526004018080602001828103825260228152602001806154e66022913960400191505060405180910390fd5b8260000160008373ffffffffffffffffffffffffffffffffffffffff1673ffffffffffffffffffffffffffffffffffffffff16815260200190815260200160002060009054906101000a900460ff16905092915050565b6150e68282614ffe565b61513b576040517f08c379a000000000000000000000000000000000000000000000000000000000815260040180806020018281038252602181526020018061549d6021913960400191505060405180910390fd5b60008260000160008373ffffffffffffffffffffffffffffffffffffffff1673ffffffffffffffffffffffffffffffffffffffff16815260200190815260200160002060006101000a81548160ff0219169083151502179055505050565b60008083118290615245576040517f08c379a00000000000000000000000000000000000000000000000000000000081526004018080602001828103825283818151815260200191508051906020019080838360005b8381101561520a5780820151818401526020810190506151ef565b50505050905090810190601f1680156152375780820380516001836020036101000a031916815260200191505b509250505060405180910390fd5b50600083858161525157fe5b049050809150509392505050565b6152698282614ffe565b156152dc576040517f08c379a000000000000000000000000000000000000000000000000000000000815260040180806020018281038252601f8152602001807f526f6c65733a206163636f756e7420616c72656164792068617320726f6c650081525060200191505060405180910390fd5b60018260000160008373ffffffffffffffffffffffffffffffffffffffff1673ffffffffffffffffffffffffffffffffffffffff16815260200190815260200160002060006101000a81548160ff0219169083151502179055505050565b828054600181600116156101000203166002900490600052602060002090601f016020900481019282601f1061537b57805160ff19168380011785556153a9565b828001600101855582156153a9579182015b828111156153a857825182559160200191906001019061538d565b5b5090506153b691906153ba565b5090565b6153dc91905b808211156153d85760008160009055506001016153c0565b5090565b9056fe45524332303a207472616e7366657220746f20746865207a65726f206164647265737345524332303a206275726e20616d6f756e7420657863656564732062616c616e636545524332303a20617070726f766520746f20746865207a65726f206164647265737345524332303a207472616e7366657220616d6f756e7420657863656564732062616c616e6365536372696265526f6c653a2063616c6c657220646f6573206e6f742068617665207468652053637269626520726f6c65526f6c65733a206163636f756e7420646f6573206e6f74206861766520726f6c6545524332303a207472616e7366657220616d6f756e74206578636565647320616c6c6f77616e6365526f6c65733a206163636f756e7420697320746865207a65726f206164647265737345524332303a206275726e2066726f6d20746865207a65726f206164647265737345524332303a207472616e736665722066726f6d20746865207a65726f206164647265737345524332303a20617070726f76652066726f6d20746865207a65726f206164647265737345524332303a2064656372656173656420616c6c6f77616e63652062656c6f77207a65726fa165627a7a7230582032785061367915cef55e7eacb33a8fe0bb5174e15cfdbb9a80e6e2cbf5c0cd010029526f6c65733a206163636f756e7420697320746865207a65726f2061646472657373",
  "source": "/*\n|| THE LEXDAO REGISTRY (TLDR) || version 0.2\n\nDEAR MSG.SENDER(S):\n\n/ TLDR is a project in beta.\n// Please audit and use at your own risk.\n/// Entry into TLDR shall not create an attorney/client relationship.\n//// Likewise, TLDR should not be construed as legal advice or replacement for professional counsel.\n\n///// STEAL THIS C0D3SL4W \n\n|| lexDAO || \n~presented by Open, ESQ LLC_DAO~\n< https://mainnet.aragon.org/#/openesquire/ >\n*/\n\npragma solidity 0.5.8;\n\n/***************\nOPENZEPPELIN REFERENCE CONTRACTS - SafeMath, ScribeRole, ERC-20 transactional scripts\n***************/\n/**\n * @dev Wrappers over Solidity's arithmetic operations with added overflow\n * checks.\n *\n * Arithmetic operations in Solidity wrap on overflow. This can easily result\n * in bugs, because programmers usually assume that an overflow raises an\n * error, which is the standard behavior in high level programming languages.\n * `SafeMath` restores this intuition by reverting the transaction when an\n * operation overflows.\n *\n * Using this library instead of the unchecked operations eliminates an entire\n * class of bugs, so it's recommended to use it always.\n */\nlibrary SafeMath {\n    /**\n     * @dev Returns the addition of two unsigned integers, reverting on\n     * overflow.\n     *\n     * Counterpart to Solidity's `+` operator.\n     *\n     * Requirements:\n     * - Addition cannot overflow.\n     */\n    function add(uint256 a, uint256 b) internal pure returns (uint256) {\n        uint256 c = a + b;\n        require(c >= a, \"SafeMath: addition overflow\");\n\n        return c;\n    }\n\n    /**\n     * @dev Returns the subtraction of two unsigned integers, reverting on\n     * overflow (when the result is negative).\n     *\n     * Counterpart to Solidity's `-` operator.\n     *\n     * Requirements:\n     * - Subtraction cannot overflow.\n     */\n    function sub(uint256 a, uint256 b) internal pure returns (uint256) {\n        return sub(a, b, \"SafeMath: subtraction overflow\");\n    }\n\n    /**\n     * @dev Returns the subtraction of two unsigned integers, reverting with custom message on\n     * overflow (when the result is negative).\n     *\n     * Counterpart to Solidity's `-` operator.\n     *\n     * Requirements:\n     * - Subtraction cannot overflow.\n     *\n     * NOTE: This is a feature of the next version of OpenZeppelin Contracts.\n     * @dev Get it via `npm install @openzeppelin/contracts@next`.\n     */\n    function sub(uint256 a, uint256 b, string memory errorMessage) internal pure returns (uint256) {\n        require(b <= a, errorMessage);\n        uint256 c = a - b;\n\n        return c;\n    }\n\n    /**\n     * @dev Returns the multiplication of two unsigned integers, reverting on\n     * overflow.\n     *\n     * Counterpart to Solidity's `*` operator.\n     *\n     * Requirements:\n     * - Multiplication cannot overflow.\n     */\n    function mul(uint256 a, uint256 b) internal pure returns (uint256) {\n        // Gas optimization: this is cheaper than requiring 'a' not being zero, but the\n        // benefit is lost if 'b' is also tested.\n        // See: https://github.com/OpenZeppelin/openzeppelin-contracts/pull/522\n        if (a == 0) {\n            return 0;\n        }\n\n        uint256 c = a * b;\n        require(c / a == b, \"SafeMath: multiplication overflow\");\n\n        return c;\n    }\n\n    /**\n     * @dev Returns the integer division of two unsigned integers. Reverts on\n     * division by zero. The result is rounded towards zero.\n     *\n     * Counterpart to Solidity's `/` operator. Note: this function uses a\n     * `revert` opcode (which leaves remaining gas untouched) while Solidity\n     * uses an invalid opcode to revert (consuming all remaining gas).\n     *\n     * Requirements:\n     * - The divisor cannot be zero.\n     */\n    function div(uint256 a, uint256 b) internal pure returns (uint256) {\n        return div(a, b, \"SafeMath: division by zero\");\n    }\n\n    /**\n     * @dev Returns the integer division of two unsigned integers. Reverts with custom message on\n     * division by zero. The result is rounded towards zero.\n     *\n     * Counterpart to Solidity's `/` operator. Note: this function uses a\n     * `revert` opcode (which leaves remaining gas untouched) while Solidity\n     * uses an invalid opcode to revert (consuming all remaining gas).\n     *\n     * Requirements:\n     * - The divisor cannot be zero.\n     * NOTE: This is a feature of the next version of OpenZeppelin Contracts.\n     * @dev Get it via `npm install @openzeppelin/contracts@next`.\n     */\n    function div(uint256 a, uint256 b, string memory errorMessage) internal pure returns (uint256) {\n        // Solidity only automatically asserts when dividing by 0\n        require(b > 0, errorMessage);\n        uint256 c = a / b;\n        // assert(a == b * c + a % b); // There is no case in which this doesn't hold\n\n        return c;\n    }\n\n    /**\n     * @dev Returns the remainder of dividing two unsigned integers. (unsigned integer modulo),\n     * Reverts when dividing by zero.\n     *\n     * Counterpart to Solidity's `%` operator. This function uses a `revert`\n     * opcode (which leaves remaining gas untouched) while Solidity uses an\n     * invalid opcode to revert (consuming all remaining gas).\n     *\n     * Requirements:\n     * - The divisor cannot be zero.\n     */\n    function mod(uint256 a, uint256 b) internal pure returns (uint256) {\n        return mod(a, b, \"SafeMath: modulo by zero\");\n    }\n\n    /**\n     * @dev Returns the remainder of dividing two unsigned integers. (unsigned integer modulo),\n     * Reverts with custom message when dividing by zero.\n     *\n     * Counterpart to Solidity's `%` operator. This function uses a `revert`\n     * opcode (which leaves remaining gas untouched) while Solidity uses an\n     * invalid opcode to revert (consuming all remaining gas).\n     *\n     * Requirements:\n     * - The divisor cannot be zero.\n     *\n     * NOTE: This is a feature of the next version of OpenZeppelin Contracts.\n     * @dev Get it via `npm install @openzeppelin/contracts@next`.\n     */\n    function mod(uint256 a, uint256 b, string memory errorMessage) internal pure returns (uint256) {\n        require(b != 0, errorMessage);\n        return a % b;\n    }\n}\n\n/**\n * @title Roles\n * @dev Library for managing addresses assigned to a Role.\n */\nlibrary Roles {\n    struct Role {\n        mapping (address => bool) bearer;\n    }\n\n    /**\n     * @dev Give an account access to this role.\n     */\n    function add(Role storage role, address account) internal {\n        require(!has(role, account), \"Roles: account already has role\");\n        role.bearer[account] = true;\n    }\n\n    /**\n     * @dev Remove an account's access to this role.\n     */\n    function remove(Role storage role, address account) internal {\n        require(has(role, account), \"Roles: account does not have role\");\n        role.bearer[account] = false;\n    }\n\n    /**\n     * @dev Check if an account has this role.\n     * @return bool\n     */\n    function has(Role storage role, address account) internal view returns (bool) {\n        require(account != address(0), \"Roles: account is the zero address\");\n        return role.bearer[account];\n    }\n}\n\n/*\n * @dev Provides information about the current execution context, including the\n * sender of the transaction and its data. While these are generally available\n * via msg.sender and msg.data, they should not be accessed in such a direct\n * manner, since when dealing with GSN meta-transactions the account sending and\n * paying for execution may not be the actual sender (as far as an application\n * is concerned).\n *\n * This contract is only required for intermediate, library-like contracts.\n */\ncontract Context {\n    // Empty internal constructor, to prevent people from mistakenly deploying\n    // an instance of this contract, which should be used via inheritance.\n    constructor () internal { }\n    // solhint-disable-previous-line no-empty-blocks\n\n    function _msgSender() internal view returns (address payable) {\n        return msg.sender;\n    }\n\n    function _msgData() internal view returns (bytes memory) {\n        this; // silence state mutability warning without generating bytecode - see https://github.com/ethereum/solidity/issues/2691\n        return msg.data;\n    }\n}\n\ncontract ScribeRole is Context {\n    using Roles for Roles.Role;\n\n    event ScribeAdded(address indexed account);\n    event ScribeRemoved(address indexed account);\n\n    Roles.Role private _Scribes;\n\n    constructor () internal {\n        _addScribe(_msgSender());\n    }\n\n    modifier onlyScribe() {\n        require(isScribe(_msgSender()), \"ScribeRole: caller does not have the Scribe role\");\n        _;\n    }\n\n    function isScribe(address account) public view returns (bool) {\n        return _Scribes.has(account);\n    }\n\n    function renounceScribe() public {\n        _removeScribe(_msgSender());\n    }\n\n    function _addScribe(address account) internal {\n        _Scribes.add(account);\n        emit ScribeAdded(account);\n    }\n\n    function _removeScribe(address account) internal {\n        _Scribes.remove(account);\n        emit ScribeRemoved(account);\n    }\n}\n\n/**\n * @dev Interface of the ERC20 standard as defined in the EIP. Does not include\n * the optional functions; to access them see {ERC20Detailed}.\n */\ninterface IERC20 {\n    /**\n     * @dev Returns the amount of tokens in existence.\n     */\n    function totalSupply() external view returns (uint256);\n\n    /**\n     * @dev Returns the amount of tokens owned by `account`.\n     */\n    function balanceOf(address account) external view returns (uint256);\n\n    /**\n     * @dev Moves `amount` tokens from the caller's account to `recipient`.\n     *\n     * Returns a boolean value indicating whether the operation succeeded.\n     *\n     * Emits a {Transfer} event.\n     */\n    function transfer(address recipient, uint256 amount) external returns (bool);\n\n    /**\n     * @dev Returns the remaining number of tokens that `spender` will be\n     * allowed to spend on behalf of `owner` through {transferFrom}. This is\n     * zero by default.\n     *\n     * This value changes when {approve} or {transferFrom} are called.\n     */\n    function allowance(address owner, address spender) external view returns (uint256);\n\n    /**\n     * @dev Sets `amount` as the allowance of `spender` over the caller's tokens.\n     *\n     * Returns a boolean value indicating whether the operation succeeded.\n     *\n     * IMPORTANT: Beware that changing an allowance with this method brings the risk\n     * that someone may use both the old and the new allowance by unfortunate\n     * transaction ordering. One possible solution to mitigate this race\n     * condition is to first reduce the spender's allowance to 0 and set the\n     * desired value afterwards:\n     * https://github.com/ethereum/EIPs/issues/20#issuecomment-263524729\n     *\n     * Emits an {Approval} event.\n     */\n    function approve(address spender, uint256 amount) external returns (bool);\n\n    /**\n     * @dev Moves `amount` tokens from `sender` to `recipient` using the\n     * allowance mechanism. `amount` is then deducted from the caller's\n     * allowance.\n     *\n     * Returns a boolean value indicating whether the operation succeeded.\n     *\n     * Emits a {Transfer} event.\n     */\n    function transferFrom(address sender, address recipient, uint256 amount) external returns (bool);\n\n    /**\n     * @dev Emitted when `value` tokens are moved from one account (`from`) to\n     * another (`to`).\n     *\n     * Note that `value` may be zero.\n     */\n    event Transfer(address indexed from, address indexed to, uint256 value);\n\n    /**\n     * @dev Emitted when the allowance of a `spender` for an `owner` is set by\n     * a call to {approve}. `value` is the new allowance.\n     */\n    event Approval(address indexed owner, address indexed spender, uint256 value);\n}\n\n/**\n * @dev Implementation of the {IERC20} interface.\n *\n * This implementation is agnostic to the way tokens are created. This means\n * that a supply mechanism has to be added in a derived contract using {_mint}.\n * For a generic mechanism see {ERC20Mintable}.\n *\n * TIP: For a detailed writeup see our guide\n * https://forum.zeppelin.solutions/t/how-to-implement-erc20-supply-mechanisms/226[How\n * to implement supply mechanisms].\n *\n * We have followed general OpenZeppelin guidelines: functions revert instead\n * of returning `false` on failure. This behavior is nonetheless conventional\n * and does not conflict with the expectations of ERC20 applications.\n *\n * Additionally, an {Approval} event is emitted on calls to {transferFrom}.\n * This allows applications to reconstruct the allowance for all accounts just\n * by listening to said events. Other implementations of the EIP may not emit\n * these events, as it isn't required by the specification.\n *\n * Finally, the non-standard {decreaseAllowance} and {increaseAllowance}\n * functions have been added to mitigate the well-known issues around setting\n * allowances. See {IERC20-approve}.\n */\ncontract ERC20 is Context, IERC20 {\n    using SafeMath for uint256;\n\n    mapping (address => uint256) private _balances;\n\n    mapping (address => mapping (address => uint256)) private _allowances;\n\n    uint256 private _totalSupply;\n\n    /**\n     * @dev See {IERC20-totalSupply}.\n     */\n    function totalSupply() public view returns (uint256) {\n        return _totalSupply;\n    }\n\n    /**\n     * @dev See {IERC20-balanceOf}.\n     */\n    function balanceOf(address account) public view returns (uint256) {\n        return _balances[account];\n    }\n\n    /**\n     * @dev See {IERC20-transfer}.\n     *\n     * Requirements:\n     *\n     * - `recipient` cannot be the zero address.\n     * - the caller must have a balance of at least `amount`.\n     */\n    function transfer(address recipient, uint256 amount) public returns (bool) {\n        _transfer(_msgSender(), recipient, amount);\n        return true;\n    }\n\n    /**\n     * @dev See {IERC20-allowance}.\n     */\n    function allowance(address owner, address spender) public view returns (uint256) {\n        return _allowances[owner][spender];\n    }\n\n    /**\n     * @dev See {IERC20-approve}.\n     *\n     * Requirements:\n     *\n     * - `spender` cannot be the zero address.\n     */\n    function approve(address spender, uint256 amount) public returns (bool) {\n        _approve(_msgSender(), spender, amount);\n        return true;\n    }\n\n    /**\n     * @dev See {IERC20-transferFrom}.\n     *\n     * Emits an {Approval} event indicating the updated allowance. This is not\n     * required by the EIP. See the note at the beginning of {ERC20};\n     *\n     * Requirements:\n     * - `sender` and `recipient` cannot be the zero address.\n     * - `sender` must have a balance of at least `amount`.\n     * - the caller must have allowance for `sender`'s tokens of at least\n     * `amount`.\n     */\n    function transferFrom(address sender, address recipient, uint256 amount) public returns (bool) {\n        _transfer(sender, recipient, amount);\n        _approve(sender, _msgSender(), _allowances[sender][_msgSender()].sub(amount, \"ERC20: transfer amount exceeds allowance\"));\n        return true;\n    }\n\n    /**\n     * @dev Atomically increases the allowance granted to `spender` by the caller.\n     *\n     * This is an alternative to {approve} that can be used as a mitigation for\n     * problems described in {IERC20-approve}.\n     *\n     * Emits an {Approval} event indicating the updated allowance.\n     *\n     * Requirements:\n     *\n     * - `spender` cannot be the zero address.\n     */\n    function increaseAllowance(address spender, uint256 addedValue) public returns (bool) {\n        _approve(_msgSender(), spender, _allowances[_msgSender()][spender].add(addedValue));\n        return true;\n    }\n\n    /**\n     * @dev Atomically decreases the allowance granted to `spender` by the caller.\n     *\n     * This is an alternative to {approve} that can be used as a mitigation for\n     * problems described in {IERC20-approve}.\n     *\n     * Emits an {Approval} event indicating the updated allowance.\n     *\n     * Requirements:\n     *\n     * - `spender` cannot be the zero address.\n     * - `spender` must have allowance for the caller of at least\n     * `subtractedValue`.\n     */\n    function decreaseAllowance(address spender, uint256 subtractedValue) public returns (bool) {\n        _approve(_msgSender(), spender, _allowances[_msgSender()][spender].sub(subtractedValue, \"ERC20: decreased allowance below zero\"));\n        return true;\n    }\n\n    /**\n     * @dev Moves tokens `amount` from `sender` to `recipient`.\n     *\n     * This is internal function is equivalent to {transfer}, and can be used to\n     * e.g. implement automatic token fees, slashing mechanisms, etc.\n     *\n     * Emits a {Transfer} event.\n     *\n     * Requirements:\n     *\n     * - `sender` cannot be the zero address.\n     * - `recipient` cannot be the zero address.\n     * - `sender` must have a balance of at least `amount`.\n     */\n    function _transfer(address sender, address recipient, uint256 amount) internal {\n        require(sender != address(0), \"ERC20: transfer from the zero address\");\n        require(recipient != address(0), \"ERC20: transfer to the zero address\");\n\n        _balances[sender] = _balances[sender].sub(amount, \"ERC20: transfer amount exceeds balance\");\n        _balances[recipient] = _balances[recipient].add(amount);\n        emit Transfer(sender, recipient, amount);\n    }\n\n    /** @dev Creates `amount` tokens and assigns them to `account`, increasing\n     * the total supply.\n     *\n     * Emits a {Transfer} event with `from` set to the zero address.\n     *\n     * Requirements\n     *\n     * - `to` cannot be the zero address.\n     */\n    function _mint(address account, uint256 amount) internal {\n        require(account != address(0), \"ERC20: mint to the zero address\");\n\n        _totalSupply = _totalSupply.add(amount);\n        _balances[account] = _balances[account].add(amount);\n        emit Transfer(address(0), account, amount);\n    }\n\n    /**\n     * @dev Destroys `amount` tokens from `account`, reducing the\n     * total supply.\n     *\n     * Emits a {Transfer} event with `to` set to the zero address.\n     *\n     * Requirements\n     *\n     * - `account` cannot be the zero address.\n     * - `account` must have at least `amount` tokens.\n     */\n    function _burn(address account, uint256 amount) internal {\n        require(account != address(0), \"ERC20: burn from the zero address\");\n\n        _balances[account] = _balances[account].sub(amount, \"ERC20: burn amount exceeds balance\");\n        _totalSupply = _totalSupply.sub(amount);\n        emit Transfer(account, address(0), amount);\n    }\n\n    /**\n     * @dev Sets `amount` as the allowance of `spender` over the `owner`s tokens.\n     *\n     * This is internal function is equivalent to `approve`, and can be used to\n     * e.g. set automatic allowances for certain subsystems, etc.\n     *\n     * Emits an {Approval} event.\n     *\n     * Requirements:\n     *\n     * - `owner` cannot be the zero address.\n     * - `spender` cannot be the zero address.\n     */\n    function _approve(address owner, address spender, uint256 amount) internal {\n        require(owner != address(0), \"ERC20: approve from the zero address\");\n        require(spender != address(0), \"ERC20: approve to the zero address\");\n\n        _allowances[owner][spender] = amount;\n        emit Approval(owner, spender, amount);\n    }\n\n    /**\n     * @dev Destroys `amount` tokens from `account`.`amount` is then deducted\n     * from the caller's allowance.\n     *\n     * See {_burn} and {_approve}.\n     */\n    function _burnFrom(address account, uint256 amount) internal {\n        _burn(account, amount);\n        _approve(account, _msgSender(), _allowances[account][_msgSender()].sub(amount, \"ERC20: burn amount exceeds allowance\"));\n    }\n}\n\n/***************\nTLDR CONTRACT\n***************/\ncontract TLDR is ScribeRole, ERC20 { // TLDR: internet-native market to wrap & enforce common deal patterns with legal & ethereal security\n    using SafeMath for uint256;\n    \n    // lexDAO references for lexDAOscribe (lexScribe) reputation governance fees ()\n    address payable public lexDAO;\n\t\n    // TLDR (LEX) ERC-20 token references for public inspection\n    address public tldrAddress = address(this);\n    ERC20 tldrToken = ERC20(tldrAddress); \n    \n    string public name = \"TLDR\";\n    string public symbol = \"LEX\";\n    uint8 public decimals = 18;\n\t\n    // counters for lexScribe lexScriptWrapper and registered DDR (rddr) / DC (rdc)\n    uint256 public LSW = 1; // number of lexScriptWrapper enscribed (starting from constructor tldr template)\n    uint256 public RDC; // number of rdc\n    uint256 public RDDR; // number of rddr\n\t\n    // mapping for lexScribe reputation governance program\n    mapping(address => uint256) public reputation; // mapping lexScribe reputation points \n    mapping(address => uint256) public lastActionTimestamp; // mapping Unix timestamp of lexScribe governance actions (cooldown)\n    mapping(address => uint256) public lastSuperActionTimestamp; // mapping Unix timestamp of special lexScribe governance actions that require longer cooldown (icedown)\n    \n    // mapping for stored lexScript wrappers and registered digital dollar retainers (DDR / rddr)\n    mapping (uint256 => lexScriptWrapper) public lexScript; // mapping registered lexScript 'wet code' templates\n    mapping (uint256 => DC) public rdc; // mapping rdc call numbers for inspection and signature revocation\n    mapping (uint256 => DDR) public rddr; // mapping rddr call numbers for inspection and digital dollar payments\n\t\n    struct lexScriptWrapper { // LSW: rddr lexScript templates maintained by lexScribes\n        address lexScribe; // lexScribe (0x) address that enscribed lexScript template into TLDR / can make subsequent edits (lexVersion)\n        address lexAddress; // (0x) address to receive lexScript wrapper lexFee / adjustable by associated lexScribe\n        string templateTerms; // lexScript template terms to wrap rddr with legal security\n        uint256 lexID; // number to reference in rddr to import lexScript wrapper terms\n        uint256 lexVersion; // version number to mark lexScribe edits\n        uint256 lexRate; // fixed, divisible rate for lexFee in ddrToken type per rddr payment made thereunder / e.g., 100 = 1% lexFee on rddr payDDR payment transaction\n    }\n        \n    struct DC { // Digital Covenant lexScript templates maintained by lexScribes\n        address signatory; // DC signatory (0x) address\n        string templateTerms; // DC templateTerms imported from referenced lexScriptWrapper\n        string signatureDetails; // DC may include signatory name or other supplementary info\n        uint256 lexID; // lexID number reference to include lexScriptWrapper for legal security \n        uint256 dcNumber; // DC number generated on signed covenant registration / identifies DC for signatory revocation function call\n        uint256 timeStamp; // block.timestamp (\"now\") of DC registration \n        bool revoked; // tracks signatory revocation status on DC\n    }\n    \t\n    struct DDR { // Digital Dollar Retainer created on lexScript terms maintained by lexScribes / data for registration \n        address client; // rddr client (0x) address\n        address provider; // provider (0x) address that receives ERC-20 payments in exchange for goods or services\n        ERC20 ddrToken; // ERC-20 digital token (0x) address used to transfer digital value on ethereum under rddr / e.g., DAI 'digital dollar' - 0x89d24A6b4CcB1B6fAA2625fE562bDD9a23260359\n        string deliverable; // goods or services (deliverable) retained for benefit of ethereum payments\n        uint256 lexID; // lexID number reference to include lexScriptWrapper for legal security / default '1' for generalized rddr lexScript template\n        uint256 ddrNumber; // rddr number generated on DDR registration / identifies rddr for payDDR function calls\n        uint256 timeStamp; // block.timestamp (\"now\") of registration used to calculate retainerTermination UnixTime\n        uint256 retainerTermination; // termination date of rddr in UnixTime / locks payments to provider / after termination, allows withdrawal of remaining escrow digital value by client on payDDR function\n        uint256 deliverableRate; // rate for rddr deliverables in digital dollar wei amount / 1 = 1000000000000000000\n        uint256 paid; // tracking amount of designated ERC-20 digital value paid under rddr in wei amount for payCap logic\n        uint256 payCap; // value cap limit on rddr payments in wei amount \n        bool confirmed; // tracks provider countersignature status\n        bool disputed; // tracks digital dispute status from client or provider / if called, locks remainder of escrow rddr payments for reputable lexScribe resolution\n    }\n    \t\n    constructor(string memory tldrTerms, uint256 tldrLexRate, address tldrLexAddress, address payable tldrLexDAO) public { // deploys TLDR contract with designated lexRate / lexAddress (0x) & stores base lexScript template \"1\" (lexID)\n\taddress lexScribe = msg.sender; // TLDR summoner is lexScribe\n\treputation[msg.sender] = 3; // sets TLDR summoner lexScribe reputation to '3' max value\n\tlexDAO = tldrLexDAO; // sets initial lexDAO (0x) address \n\tuint256 lexID = 1; // default lexID for constructor / general rddr reference, 'tldrTerms'\n\tuint256 lexVersion = 0; // initialized version of tldrTerms\n\t    \n\t    lexScript[lexID] = lexScriptWrapper( // populates default '1' lexScript data for reference in LSW and rddr\n                lexScribe,\n                tldrLexAddress,\n                tldrTerms,\n                lexID,\n                lexVersion,\n                tldrLexRate);\n    }\n        \n    // TLDR Contract Events\n    event Enscribed(uint256 indexed lexID, uint256 indexed lexVersion, address indexed lexScribe); // triggered on successful LSW creation / edits to LSW\n    event Signed(uint256 indexed lexID, uint256 indexed dcNumber, address indexed signatory); // triggered on successful DC creation / edits to DC \n    event Registered(uint256 indexed ddrNumber, uint256 indexed lexID, address indexed client); // triggered on successful rddr \n    event Confirmed(uint256 indexed ddrNumber, uint256 indexed lexID, address indexed provider); // triggered on succesfful rddr confirmation\n    event Paid(uint256 indexed ddrNumber, uint256 indexed lexID); // triggered on successful rddr payments\n    event Disputed(uint256 indexed ddrNumber); // triggered on rddr dispute\n    event Resolved(uint256 indexed ddrNumber); // triggered on successful rddr dispute resolution\n    \n    /***************\n    TLDR GOVERNANCE FUNCTIONS\n    ***************/   \n    // restricts lexScribe TLDR reputation governance function calls to once per day (cooldown)\n    modifier cooldown() {\n        require(now.sub(lastActionTimestamp[msg.sender]) > 1 days); // enforces cooldown period\n        _;\n        \n\tlastActionTimestamp[msg.sender] = now; // block.timestamp, \"now\"\n    }\n        \n    // restricts important lexScribe TLDR reputation staking and lexDAO governance function calls to once per 90 days (icedown)\n    modifier icedown() {\n        require(now.sub(lastSuperActionTimestamp[msg.sender]) > 90 days); // enforces icedown period\n        _;\n        \n\tlastSuperActionTimestamp[msg.sender] = now; // block.timestamp, \"now\"\n    }\n    \n    // lexDAO can add new lexScribe to maintain TLDR\n    function addScribe(address account) public {\n        require(msg.sender == lexDAO);\n        _addScribe(account);\n\treputation[account] = 1;\n    }\n    \n    // lexDAO can remove lexScribe from TLDR / slash reputation\n    function removeScribe(address account) public {\n        require(msg.sender == lexDAO);\n        _removeScribe(account);\n\treputation[account] = 0;\n    }\n    \n    // lexDAO can update (0x) address receiving reputation governance stakes () / maintaining lexScribe registry\n    function updateLexDAO(address payable newLexDAO) public {\n    \trequire(msg.sender == lexDAO);\n        require(newLexDAO != address(0)); // program safety check / newLexDAO cannot be \"0\" burn address\n        \n\tlexDAO = newLexDAO; // updates lexDAO (0x) address\n    }\n        \n    // lexScribes can stake ether () value for TLDR reputation and special TLDR function access (TLDR write privileges, rddr dispute resolution role) \n    function stakeETHreputation() payable public onlyScribe icedown {\n        require(msg.value == 0.1 ether); // tenth of ether () fee for staking reputation to lexDAO\n        \n\treputation[msg.sender] = 3; // sets / refreshes lexScribe reputation to '3' max value, 'three strikes, you're out' buffer\n        \n\taddress(lexDAO).transfer(msg.value); // forwards staked value () to designated lexDAO (0x) address\n    }\n    \n    // lexScribes can burn minted LEX value for TLDR reputation \n    function stakeLEXreputation() public onlyScribe icedown { \n\t_burn(_msgSender(), 10000000000000000000); // 10 LEX burned \n        \n\treputation[msg.sender] = 3; // sets / refreshes lexScribe reputation to '3' max value, 'three strikes, you're out' buffer\n    }\n         \n    // public check on lexScribe reputation status\n    function isReputable(address x) public view returns (bool) { // returns true if lexScribe is reputable\n        return reputation[x] > 0;\n    }\n        \n    // reputable lexScribes can reduce each other's reputation within cooldown period \n    function reduceScribeRep(address reducedLexScribe) cooldown public {\n        require(isReputable(msg.sender)); // program governance check / lexScribe must be reputable\n        require(msg.sender != reducedLexScribe); // program governance check / cannot reduce own reputation\n        \n\treputation[reducedLexScribe] = reputation[reducedLexScribe].sub(1); // reduces referenced lexScribe reputation by \"1\"\n    }\n        \n    // reputable lexScribes can repair each other's reputation within cooldown period\n    function repairScribeRep(address repairedLexScribe) cooldown public {\n        require(isReputable(msg.sender)); // program governance check / lexScribe must be reputable\n        require(msg.sender != repairedLexScribe); // program governance check / cannot repair own reputation\n        require(reputation[repairedLexScribe] < 3); // program governance check / cannot repair fully reputable lexScribe\n        require(reputation[repairedLexScribe] > 0); // program governance check / cannot repair disreputable lexScribe / induct non-staked lexScribe\n        \n\treputation[repairedLexScribe] = reputation[repairedLexScribe].add(1); // repairs reputation by \"1\"\n    }\n       \n    /***************\n    TLDR LEXSCRIBE FUNCTIONS\n    ***************/\n    // reputable lexScribes can register lexScript legal wrappers on TLDR and program ERC-20 lexFees associated with lexID / receive LEX mint, \"1\"\n    function writeLexScript(string memory templateTerms, uint256 lexRate, address lexAddress) public {\n        require(isReputable(msg.sender)); // program governance check / lexScribe must be reputable \n\t\n\tuint256 lexID = LSW.add(1); // reflects new lexScript value for tracking lexScript wrappers\n\tuint256 lexVersion = 0; // initalized lexVersion, \"0\"\n\tLSW = LSW.add(1); // counts new entry to LSW \n\t    \n\t    lexScript[lexID] = lexScriptWrapper( // populate lexScript data for rddr / rdc usage\n                msg.sender,\n                lexAddress,\n                templateTerms,\n                lexID,\n                lexVersion,\n                lexRate);\n                \n        _mint(msg.sender, 1000000000000000000); // mints lexScribe \"1\" LEX for contribution to TLDR\n\t\n        emit Enscribed(lexID, lexVersion, msg.sender); \n    }\n\t    \n    // lexScribes can update TLDR lexScript wrappers with new templateTerms and (0x) newLexAddress / versions up LSW\n    function editLexScript(uint256 lexID, string memory templateTerms, address lexAddress) public {\n\tlexScriptWrapper storage lS = lexScript[lexID]; // retrieve LSW data\n\t\n\trequire(msg.sender == lS.lexScribe); // program safety check / authorization \n\t\n\tuint256 lexVersion = lS.lexVersion.add(1); // updates lexVersion \n\t    \n\t    lexScript[lexID] = lexScriptWrapper( // populates updated lexScript data for rddr / rdc usage\n                msg.sender,\n                lexAddress,\n                templateTerms,\n                lexID,\n                lexVersion,\n                lS.lexRate);\n                \t\n        emit Enscribed(lexID, lexVersion, msg.sender);\n    }\n\n    /***************\n    TLDR MARKET FUNCTIONS\n    ***************/\n    // public can sign and associate (0x) ethereum identity with lexScript digital covenant wrapper \n    function signDC(uint256 lexID, string memory signatureDetails) public { // sign Digital Covenant with (0x) address\n\trequire(lexID > (0)); // program safety check\n\trequire(lexID <= LSW); // program safety check\n\tlexScriptWrapper storage lS = lexScript[lexID]; // retrieve LSW data\n\t\n\tuint256 dcNumber = RDC.add(1); // reflects new rdc value for public inspection and signature revocation\n\tRDC = RDC.add(1); // counts new entry to RDC\n\t        \n\t    rdc[dcNumber] = DC( // populates rdc data\n                msg.sender,\n                lS.templateTerms,\n                signatureDetails,\n                lexID,\n                dcNumber,\n                now, \n                false);\n                \t\n        emit Signed(lexID, dcNumber, msg.sender);\n    }\n    \t\n    // registered DC signatories can revoke (0x) signature  \n    function revokeDC(uint256 dcNumber) public { // revoke Digital Covenant signature with (0x) address\n\tDC storage dc = rdc[dcNumber]; // retrieve rdc data\n\t\n\trequire(msg.sender == dc.signatory); // program safety check / authorization\n\t    \n\t    rdc[dcNumber] = DC(// updates rdc data\n                msg.sender,\n                \"Signature Revoked\", // replaces Digital Covenant terms with revocation message\n                dc.signatureDetails,\n                dc.lexID,\n                dc.dcNumber,\n                now, // updates to revocation timestamp\n                true);\n                \t\n        emit Signed(dc.lexID, dcNumber, msg.sender);\n    }\n    \n    // rddr client can register DDR with TLDR lexScripts (lexID) \n    function registerDDR( // rddr \n    \taddress client,\n    \taddress provider,\n    \tERC20 ddrToken,\n    \tstring memory deliverable,\n        uint256 retainerDuration,\n    \tuint256 deliverableRate,\n    \tuint256 payCap,\n    \tuint256 lexID) public {\n    \trequire(lexID > (0)); // program safety check \n    \trequire(lexID <= LSW); // program safety check \n        require(deliverableRate <= payCap); // program safety check / economics\n\trequire(msg.sender == client); // program safety check / authorization / client signs TLDR transaction registering ddr offer / designates provider for confirmation\n        \n\tuint256 ddrNumber = RDDR.add(1); // reflects new rddr value for inspection and escrow management\n        uint256 retainerTermination = now.add(retainerDuration); // rddr termination date in UnixTime, \"now\" block.timestamp + retainerDuration\n\n\tRDDR = RDDR.add(1); // counts new entry to RDDR\n    \n            rddr[ddrNumber] = DDR( // populate rddr data \n                client,\n                provider,\n                ddrToken,\n                deliverable,\n                lexID,\n                ddrNumber,\n                now, // block.timestamp, \"now\"\n                retainerTermination,\n                deliverableRate,\n                0,\n                payCap,\n                false,\n                false);\n        \t \n        emit Registered(ddrNumber, lexID, msg.sender); \n    }\n    \n    // rddr provider can confirm rddr offer and countersign ddrNumber / trigger escrow deposit from rddr client in approved payCap amount\n    function confirmDDR(uint256 ddrNumber) public {\n        DDR storage ddr = rddr[ddrNumber]; // retrieve rddr data\n        \n        require(ddr.confirmed == false); // program safety check / status\n        require(now <= ddr.retainerTermination); // program safety check / time\n        require(msg.sender == ddr.provider); // program safety check / authorization\n        \n        ddr.confirmed = true; // reflect rddr provider countersignature\n        \n        ddr.ddrToken.transferFrom(ddr.client, address(this), ddr.payCap); // escrows payCap amount in approved ddrToken into TLDR for rddr payments and/or lexScribe resolution\n    \n        emit Confirmed(ddrNumber, ddr.lexID, msg.sender);\n    }\n         \n    // rddr client can call to delegate role\n    function delegateDDRclient(uint256 ddrNumber, address clientDelegate) public {\n        DDR storage ddr = rddr[ddrNumber]; // retrieve rddr data\n        \n        require(ddr.disputed == false); // program safety check / status\n        require(now <= ddr.retainerTermination); // program safety check / time\n        require(msg.sender == ddr.client); // program safety check / authorization\n        require(ddr.paid < ddr.payCap); // program safety check / economics\n        \n        ddr.client = clientDelegate; // updates rddr client address to delegate\n    }\n    \n    // rddr parties can initiate dispute and lock escrowed remainder of rddr payCap in TLDR until resolution by reputable lexScribe\n    function disputeDDR(uint256 ddrNumber) public {\n        DDR storage ddr = rddr[ddrNumber]; // retrieve rddr data\n        \n        require(ddr.confirmed == true); // program safety check / status\n\trequire(ddr.disputed == false); // program safety check / status\n        require(now <= ddr.retainerTermination); // program safety check / time\n        require(msg.sender == ddr.client || msg.sender == ddr.provider); // program safety check / authorization\n\trequire(ddr.paid < ddr.payCap); // program safety check / economics\n        \n\tddr.disputed = true; // updates rddr value to reflect dispute status, \"true\"\n\t    \n\temit Disputed(ddrNumber);\n    }\n    \n    // reputable lexScribe can resolve rddr dispute with division of remaining payCap amount in wei accounting for 5% fee / receive fee + LEX mint, \"1\"\n    function resolveDDR(uint256 ddrNumber, uint256 clientAward, uint256 providerAward) public {\n        DDR storage ddr = rddr[ddrNumber]; // retrieve rddr data\n\t\n\tuint256 ddRemainder = ddr.payCap.sub(ddr.paid); // alias remainder rddr wei amount for rddr resolution reference\n\tuint256 resolutionFee = ddRemainder.div(20); // calculates 5% lexScribe dispute resolution fee\n\t\n\trequire(ddr.disputed == true); // program safety check / status\n\trequire(clientAward.add(providerAward) == ddRemainder.sub(resolutionFee)); // program safety check / economics\n        require(msg.sender != ddr.client); // program safety check / authorization / client cannot resolve own dispute as lexScribe\n        require(msg.sender != ddr.provider); // program safety check / authorization / provider cannot resolve own dispute as lexScribe\n        require(isReputable(msg.sender)); // program governance check / resolving lexScribe must be reputable\n\trequire(balanceOf(msg.sender) >= 5000000000000000000); // program governance check / resolving lexScribe must have at least \"5\" LEX balance\n\t\n        ddr.ddrToken.transfer(ddr.client, clientAward); // executes ERC-20 award transfer to rddr client\n        ddr.ddrToken.transfer(ddr.provider, providerAward); // executes ERC-20 award transfer to rddr provider\n    \tddr.ddrToken.transfer(msg.sender, resolutionFee); // executes ERC-20 fee transfer to resolving lexScribe\n    \t\n    \t_mint(msg.sender, 1000000000000000000); // mints resolving lexScribe \"1\" LEX for contribution to TLDR\n\t\n\tddr.paid = ddr.paid.add(ddRemainder); // tallies remainder to paid wei amount to reflect rddr closure\n\t    \n\temit Resolved(ddrNumber);\n    }\n    \n    // client can call to pay rddr on TLDR\n    function payDDR(uint256 ddrNumber) public { // releases escrowed ddrToken deliverableRate amount to provider (0x) address / lexFee for attached lexID lexAddress\n    \tDDR storage ddr = rddr[ddrNumber]; // retrieve rddr data\n    \tlexScriptWrapper storage lS = lexScript[ddr.lexID]; // retrieve LSW data\n\t\n\trequire(ddr.confirmed == true); // program safety check / status\n\trequire(ddr.disputed == false); // program safety check / status\n    \trequire(now <= ddr.retainerTermination); // program safety check / time\n    \trequire(msg.sender == ddr.client); // program safety check / authorization\n    \trequire(ddr.paid.add(ddr.deliverableRate) <= ddr.payCap); // program safety check / economics\n\t\n    \tuint256 lexFee = ddr.deliverableRate.div(lS.lexRate); // derives lexFee from rddr deliverableRate\n\t\n    \tddr.ddrToken.transfer(ddr.provider, ddr.deliverableRate.sub(lexFee)); // executes ERC-20 transfer to rddr provider in deliverableRate amount\n    \tddr.ddrToken.transfer(lS.lexAddress, lexFee); // executes ERC-20 transfer of lexFee to (0x) lexAddress identified in lexID\n    \tddr.paid = ddr.paid.add(ddr.deliverableRate); // tracks total ERC-20 wei amount paid under rddr / used to calculate rddr remainder\n        \n\temit Paid(ddr.ddrNumber, ddr.lexID); \n    }\n    \n    // client can call to withdraw rddr remainder on TLDR after termination\n    function withdrawRemainder(uint256 ddrNumber) public { // releases escrowed ddrToken deliverableRate amount to provider (0x) address \n    \tDDR storage ddr = rddr[ddrNumber]; // retrieve rddr data\n\t\n        require(ddr.confirmed == true); // program safety check / status\n        require(ddr.disputed == false); // program safety check / status\n    \trequire(now >= ddr.retainerTermination); // program safety check / time\n    \trequire(msg.sender == ddr.client); // program safety check / authorization\n    \t\n    \tuint256 remainder = ddr.payCap.sub(ddr.paid); // derive rddr remainder\n    \t\n    \trequire(remainder > 0); // program safety check / economics\n\t\n    \tddr.ddrToken.transfer(ddr.client, remainder); // executes ERC-20 transfer to rddr provider in escrow remainder amount\n    \t\n    \tddr.paid = ddr.paid.add(remainder); // tallies remainder to paid wei amount to reflect rddr closure\n    }\n}\n",
  "sourcePath": "/home/josh/dev/TLDR/contracts/TLDR.sol",
  "compiler": {
    "name": "solc",
    "version": "0.5.8+commit.23d335f2.Emscripten.clang"
  },
  "schemaVersion": "3.0.11",
  "updatedAt": "2019-11-06T05:37:22.508Z",
  "devdoc": {
    "methods": {
      "allowance(address,address)": {
        "details": "See {IERC20-allowance}."
      },
      "approve(address,uint256)": {
        "details": "See {IERC20-approve}.     * Requirements:     * - `spender` cannot be the zero address."
      },
      "balanceOf(address)": {
        "details": "See {IERC20-balanceOf}."
      },
      "decreaseAllowance(address,uint256)": {
        "details": "Atomically decreases the allowance granted to `spender` by the caller.     * This is an alternative to {approve} that can be used as a mitigation for problems described in {IERC20-approve}.     * Emits an {Approval} event indicating the updated allowance.     * Requirements:     * - `spender` cannot be the zero address. - `spender` must have allowance for the caller of at least `subtractedValue`."
      },
      "increaseAllowance(address,uint256)": {
        "details": "Atomically increases the allowance granted to `spender` by the caller.     * This is an alternative to {approve} that can be used as a mitigation for problems described in {IERC20-approve}.     * Emits an {Approval} event indicating the updated allowance.     * Requirements:     * - `spender` cannot be the zero address."
      },
      "totalSupply()": {
        "details": "See {IERC20-totalSupply}."
      },
      "transfer(address,uint256)": {
        "details": "See {IERC20-transfer}.     * Requirements:     * - `recipient` cannot be the zero address. - the caller must have a balance of at least `amount`."
      },
      "transferFrom(address,address,uint256)": {
        "details": "See {IERC20-transferFrom}.     * Emits an {Approval} event indicating the updated allowance. This is not required by the EIP. See the note at the beginning of {ERC20};     * Requirements: - `sender` and `recipient` cannot be the zero address. - `sender` must have a balance of at least `amount`. - the caller must have allowance for `sender`'s tokens of at least `amount`."
      }
    }
  },
  "userdoc": {
    "methods": {
      "signDC(uint256,string)": {
        "notice": "************* TLDR MARKET FUNCTIONS**************"
      },
      "writeLexScript(string,uint256,address)": {
        "notice": "************* TLDR LEXSCRIBE FUNCTIONS**************"
      }
    },
    "notice": "************* TLDR CONTRACT**************"
  }
}